{"abi":[{"type":"constructor","inputs":[{"name":"_poolManager","type":"address","internalType":"address"},{"name":"_token0","type":"address","internalType":"address"},{"name":"_token1","type":"address","internalType":"address"}],"stateMutability":"nonpayable"},{"type":"function","name":"admin","inputs":[],"outputs":[{"name":"","type":"address","internalType":"address"}],"stateMutability":"view"},{"type":"function","name":"afterAddLiquidity","inputs":[{"name":"","type":"address","internalType":"address"},{"name":"","type":"tuple","internalType":"struct PoolKey","components":[{"name":"currency0","type":"address","internalType":"Currency"},{"name":"currency1","type":"address","internalType":"Currency"},{"name":"fee","type":"uint24","internalType":"uint24"},{"name":"tickSpacing","type":"int24","internalType":"int24"},{"name":"hooks","type":"address","internalType":"contract IHooks"}]},{"name":"","type":"tuple","internalType":"struct ModifyLiquidityParams","components":[{"name":"tickLower","type":"int24","internalType":"int24"},{"name":"tickUpper","type":"int24","internalType":"int24"},{"name":"liquidityDelta","type":"int256","internalType":"int256"},{"name":"salt","type":"bytes32","internalType":"bytes32"}]},{"name":"","type":"int256","internalType":"BalanceDelta"},{"name":"","type":"int256","internalType":"BalanceDelta"},{"name":"","type":"bytes","internalType":"bytes"}],"outputs":[{"name":"","type":"bytes4","internalType":"bytes4"},{"name":"","type":"int256","internalType":"BalanceDelta"}],"stateMutability":"nonpayable"},{"type":"function","name":"afterDonate","inputs":[{"name":"","type":"address","internalType":"address"},{"name":"","type":"tuple","internalType":"struct PoolKey","components":[{"name":"currency0","type":"address","internalType":"Currency"},{"name":"currency1","type":"address","internalType":"Currency"},{"name":"fee","type":"uint24","internalType":"uint24"},{"name":"tickSpacing","type":"int24","internalType":"int24"},{"name":"hooks","type":"address","internalType":"contract IHooks"}]},{"name":"","type":"uint256","internalType":"uint256"},{"name":"","type":"uint256","internalType":"uint256"},{"name":"","type":"bytes","internalType":"bytes"}],"outputs":[{"name":"","type":"bytes4","internalType":"bytes4"}],"stateMutability":"nonpayable"},{"type":"function","name":"afterInitialize","inputs":[{"name":"","type":"address","internalType":"address"},{"name":"","type":"tuple","internalType":"struct PoolKey","components":[{"name":"currency0","type":"address","internalType":"Currency"},{"name":"currency1","type":"address","internalType":"Currency"},{"name":"fee","type":"uint24","internalType":"uint24"},{"name":"tickSpacing","type":"int24","internalType":"int24"},{"name":"hooks","type":"address","internalType":"contract IHooks"}]},{"name":"","type":"uint160","internalType":"uint160"},{"name":"","type":"int24","internalType":"int24"}],"outputs":[{"name":"","type":"bytes4","internalType":"bytes4"}],"stateMutability":"pure"},{"type":"function","name":"afterRemoveLiquidity","inputs":[{"name":"","type":"address","internalType":"address"},{"name":"","type":"tuple","internalType":"struct PoolKey","components":[{"name":"currency0","type":"address","internalType":"Currency"},{"name":"currency1","type":"address","internalType":"Currency"},{"name":"fee","type":"uint24","internalType":"uint24"},{"name":"tickSpacing","type":"int24","internalType":"int24"},{"name":"hooks","type":"address","internalType":"contract IHooks"}]},{"name":"","type":"tuple","internalType":"struct ModifyLiquidityParams","components":[{"name":"tickLower","type":"int24","internalType":"int24"},{"name":"tickUpper","type":"int24","internalType":"int24"},{"name":"liquidityDelta","type":"int256","internalType":"int256"},{"name":"salt","type":"bytes32","internalType":"bytes32"}]},{"name":"","type":"int256","internalType":"BalanceDelta"},{"name":"","type":"int256","internalType":"BalanceDelta"},{"name":"","type":"bytes","internalType":"bytes"}],"outputs":[{"name":"","type":"bytes4","internalType":"bytes4"},{"name":"","type":"int256","internalType":"BalanceDelta"}],"stateMutability":"nonpayable"},{"type":"function","name":"afterSwap","inputs":[{"name":"","type":"address","internalType":"address"},{"name":"","type":"tuple","internalType":"struct PoolKey","components":[{"name":"currency0","type":"address","internalType":"Currency"},{"name":"currency1","type":"address","internalType":"Currency"},{"name":"fee","type":"uint24","internalType":"uint24"},{"name":"tickSpacing","type":"int24","internalType":"int24"},{"name":"hooks","type":"address","internalType":"contract IHooks"}]},{"name":"","type":"tuple","internalType":"struct SwapParams","components":[{"name":"zeroForOne","type":"bool","internalType":"bool"},{"name":"amountSpecified","type":"int256","internalType":"int256"},{"name":"sqrtPriceLimitX96","type":"uint160","internalType":"uint160"}]},{"name":"","type":"int256","internalType":"BalanceDelta"},{"name":"","type":"bytes","internalType":"bytes"}],"outputs":[{"name":"","type":"bytes4","internalType":"bytes4"},{"name":"","type":"int128","internalType":"int128"}],"stateMutability":"pure"},{"type":"function","name":"beforeAddLiquidity","inputs":[{"name":"","type":"address","internalType":"address"},{"name":"","type":"tuple","internalType":"struct PoolKey","components":[{"name":"currency0","type":"address","internalType":"Currency"},{"name":"currency1","type":"address","internalType":"Currency"},{"name":"fee","type":"uint24","internalType":"uint24"},{"name":"tickSpacing","type":"int24","internalType":"int24"},{"name":"hooks","type":"address","internalType":"contract IHooks"}]},{"name":"","type":"tuple","internalType":"struct ModifyLiquidityParams","components":[{"name":"tickLower","type":"int24","internalType":"int24"},{"name":"tickUpper","type":"int24","internalType":"int24"},{"name":"liquidityDelta","type":"int256","internalType":"int256"},{"name":"salt","type":"bytes32","internalType":"bytes32"}]},{"name":"","type":"bytes","internalType":"bytes"}],"outputs":[{"name":"","type":"bytes4","internalType":"bytes4"}],"stateMutability":"nonpayable"},{"type":"function","name":"beforeDonate","inputs":[{"name":"","type":"address","internalType":"address"},{"name":"","type":"tuple","internalType":"struct PoolKey","components":[{"name":"currency0","type":"address","internalType":"Currency"},{"name":"currency1","type":"address","internalType":"Currency"},{"name":"fee","type":"uint24","internalType":"uint24"},{"name":"tickSpacing","type":"int24","internalType":"int24"},{"name":"hooks","type":"address","internalType":"contract IHooks"}]},{"name":"","type":"uint256","internalType":"uint256"},{"name":"","type":"uint256","internalType":"uint256"},{"name":"","type":"bytes","internalType":"bytes"}],"outputs":[{"name":"","type":"bytes4","internalType":"bytes4"}],"stateMutability":"nonpayable"},{"type":"function","name":"beforeInitialize","inputs":[{"name":"","type":"address","internalType":"address"},{"name":"","type":"tuple","internalType":"struct PoolKey","components":[{"name":"currency0","type":"address","internalType":"Currency"},{"name":"currency1","type":"address","internalType":"Currency"},{"name":"fee","type":"uint24","internalType":"uint24"},{"name":"tickSpacing","type":"int24","internalType":"int24"},{"name":"hooks","type":"address","internalType":"contract IHooks"}]},{"name":"","type":"uint160","internalType":"uint160"}],"outputs":[{"name":"","type":"bytes4","internalType":"bytes4"}],"stateMutability":"view"},{"type":"function","name":"beforeRemoveLiquidity","inputs":[{"name":"","type":"address","internalType":"address"},{"name":"","type":"tuple","internalType":"struct PoolKey","components":[{"name":"currency0","type":"address","internalType":"Currency"},{"name":"currency1","type":"address","internalType":"Currency"},{"name":"fee","type":"uint24","internalType":"uint24"},{"name":"tickSpacing","type":"int24","internalType":"int24"},{"name":"hooks","type":"address","internalType":"contract IHooks"}]},{"name":"","type":"tuple","internalType":"struct ModifyLiquidityParams","components":[{"name":"tickLower","type":"int24","internalType":"int24"},{"name":"tickUpper","type":"int24","internalType":"int24"},{"name":"liquidityDelta","type":"int256","internalType":"int256"},{"name":"salt","type":"bytes32","internalType":"bytes32"}]},{"name":"","type":"bytes","internalType":"bytes"}],"outputs":[{"name":"","type":"bytes4","internalType":"bytes4"}],"stateMutability":"nonpayable"},{"type":"function","name":"beforeSwap","inputs":[{"name":"sender","type":"address","internalType":"address"},{"name":"","type":"tuple","internalType":"struct PoolKey","components":[{"name":"currency0","type":"address","internalType":"Currency"},{"name":"currency1","type":"address","internalType":"Currency"},{"name":"fee","type":"uint24","internalType":"uint24"},{"name":"tickSpacing","type":"int24","internalType":"int24"},{"name":"hooks","type":"address","internalType":"contract IHooks"}]},{"name":"params","type":"tuple","internalType":"struct SwapParams","components":[{"name":"zeroForOne","type":"bool","internalType":"bool"},{"name":"amountSpecified","type":"int256","internalType":"int256"},{"name":"sqrtPriceLimitX96","type":"uint160","internalType":"uint160"}]},{"name":"","type":"bytes","internalType":"bytes"}],"outputs":[{"name":"","type":"bytes4","internalType":"bytes4"},{"name":"","type":"int256","internalType":"BeforeSwapDelta"},{"name":"","type":"uint24","internalType":"uint24"}],"stateMutability":"nonpayable"},{"type":"function","name":"cancelOrder","inputs":[{"name":"orderId","type":"uint256","internalType":"uint256"}],"outputs":[],"stateMutability":"nonpayable"},{"type":"function","name":"curveMode","inputs":[],"outputs":[{"name":"","type":"uint8","internalType":"enum FlowHookRouter.CurveMode"}],"stateMutability":"view"},{"type":"function","name":"feeEngine","inputs":[],"outputs":[{"name":"","type":"address","internalType":"contract IFeeEngine"}],"stateMutability":"view"},{"type":"function","name":"getCurrentPrice","inputs":[],"outputs":[{"name":"","type":"uint256","internalType":"uint256"}],"stateMutability":"view"},{"type":"function","name":"getHookPermissions","inputs":[],"outputs":[{"name":"","type":"tuple","internalType":"struct Hooks.Permissions","components":[{"name":"beforeInitialize","type":"bool","internalType":"bool"},{"name":"afterInitialize","type":"bool","internalType":"bool"},{"name":"beforeAddLiquidity","type":"bool","internalType":"bool"},{"name":"afterAddLiquidity","type":"bool","internalType":"bool"},{"name":"beforeRemoveLiquidity","type":"bool","internalType":"bool"},{"name":"afterRemoveLiquidity","type":"bool","internalType":"bool"},{"name":"beforeSwap","type":"bool","internalType":"bool"},{"name":"afterSwap","type":"bool","internalType":"bool"},{"name":"beforeDonate","type":"bool","internalType":"bool"},{"name":"afterDonate","type":"bool","internalType":"bool"},{"name":"beforeSwapReturnDelta","type":"bool","internalType":"bool"},{"name":"afterSwapReturnDelta","type":"bool","internalType":"bool"},{"name":"afterAddLiquidityReturnDelta","type":"bool","internalType":"bool"},{"name":"afterRemoveLiquidityReturnDelta","type":"bool","internalType":"bool"}]}],"stateMutability":"pure"},{"type":"function","name":"getOpenInterest","inputs":[],"outputs":[{"name":"longOI","type":"uint256","internalType":"uint256"},{"name":"shortOI","type":"uint256","internalType":"uint256"},{"name":"netOI","type":"int256","internalType":"int256"}],"stateMutability":"view"},{"type":"function","name":"getVAMMState","inputs":[],"outputs":[{"name":"k","type":"uint256","internalType":"uint256"},{"name":"q","type":"uint256","internalType":"uint256"},{"name":"price","type":"uint256","internalType":"uint256"},{"name":"sensitivity","type":"uint256","internalType":"uint256"}],"stateMutability":"view"},{"type":"function","name":"oracleEngine","inputs":[],"outputs":[{"name":"","type":"address","internalType":"contract IOracleEngine"}],"stateMutability":"view"},{"type":"function","name":"orderbookEngine","inputs":[],"outputs":[{"name":"","type":"address","internalType":"contract ILOBEngine"}],"stateMutability":"view"},{"type":"function","name":"placeLimitOrder","inputs":[{"name":"price","type":"uint256","internalType":"uint256"},{"name":"quantity","type":"uint256","internalType":"uint256"},{"name":"isBuy","type":"bool","internalType":"bool"}],"outputs":[{"name":"orderId","type":"uint256","internalType":"uint256"}],"stateMutability":"nonpayable"},{"type":"function","name":"poolManager","inputs":[],"outputs":[{"name":"","type":"address","internalType":"contract IPoolManager"}],"stateMutability":"view"},{"type":"function","name":"setCurveMode","inputs":[{"name":"_mode","type":"uint8","internalType":"enum FlowHookRouter.CurveMode"}],"outputs":[],"stateMutability":"nonpayable"},{"type":"function","name":"setFeeEngine","inputs":[{"name":"_feeEngine","type":"address","internalType":"address"}],"outputs":[],"stateMutability":"nonpayable"},{"type":"function","name":"setOracleEngine","inputs":[{"name":"_oracleEngine","type":"address","internalType":"address"}],"outputs":[],"stateMutability":"nonpayable"},{"type":"function","name":"setOrderbookEngine","inputs":[{"name":"_orderbookEngine","type":"address","internalType":"address"}],"outputs":[],"stateMutability":"nonpayable"},{"type":"function","name":"setVAMMEngine","inputs":[{"name":"_vammEngine","type":"address","internalType":"address"}],"outputs":[],"stateMutability":"nonpayable"},{"type":"function","name":"token0","inputs":[],"outputs":[{"name":"","type":"address","internalType":"address"}],"stateMutability":"view"},{"type":"function","name":"token1","inputs":[],"outputs":[{"name":"","type":"address","internalType":"address"}],"stateMutability":"view"},{"type":"function","name":"transferAdmin","inputs":[{"name":"newAdmin","type":"address","internalType":"address"}],"outputs":[],"stateMutability":"nonpayable"},{"type":"function","name":"vammEngine","inputs":[],"outputs":[{"name":"","type":"address","internalType":"contract IVAMMEngine"}],"stateMutability":"view"},{"type":"event","name":"EngineUpdated","inputs":[{"name":"engineType","type":"string","indexed":false,"internalType":"string"},{"name":"newAddress","type":"address","indexed":false,"internalType":"address"}],"anonymous":false},{"type":"event","name":"ModeChanged","inputs":[{"name":"oldMode","type":"uint8","indexed":false,"internalType":"enum FlowHookRouter.CurveMode"},{"name":"newMode","type":"uint8","indexed":false,"internalType":"enum FlowHookRouter.CurveMode"}],"anonymous":false},{"type":"event","name":"SwapExecuted","inputs":[{"name":"trader","type":"address","indexed":true,"internalType":"address"},{"name":"isLong","type":"bool","indexed":false,"internalType":"bool"},{"name":"size","type":"uint256","indexed":false,"internalType":"uint256"},{"name":"executionPrice","type":"uint256","indexed":false,"internalType":"uint256"},{"name":"priceImpact","type":"uint256","indexed":false,"internalType":"uint256"},{"name":"timestamp","type":"uint256","indexed":false,"internalType":"uint256"}],"anonymous":false},{"type":"error","name":"EngineNotSet","inputs":[]},{"type":"error","name":"InvalidMode","inputs":[]},{"type":"error","name":"ReentrancyGuard","inputs":[]},{"type":"error","name":"Unauthorized","inputs":[]}],"bytecode":{"object":"0x60e0346100d357601f620016c938819003918201601f19168301916001600160401b038311848410176100d7578084926060946040528339810103126100d357610048816100eb565b90610061604061005a602084016100eb565b92016100eb565b6001600160a01b0390921660805260a05260c052600480546001600160a01b031916331790556003805460ff60a01b1916600160a11b1790556040516115c990816200010082396080518181816103a70152818161040e01526109e4015260a051816110d0015260c051816104530152f35b5f80fd5b634e487b7160e01b5f52604160045260245ffd5b51906001600160a01b03821682036100d35756fe6080806040526004361015610012575f80fd5b5f905f3560e01c9081630dfe1681146110be57508063169b44111461104357806316dd46721461101457806321d0ee7014610ff0578063259982e514610fcc5780632a6d35aa14610f54578063514fcac714610eae57806352765b6f14610e85578063575e24b41461098a5780635b92935c146109135780636c2bbe7e146108e75780636fe7e6eb1461089857806375829def1461085357806397faa769146107c457806399081c741461079d5780639f063efc146107715780639f6814e6146106fb578063b47b2fb11461068e578063b6a8b0fa14610668578063ba2423fa1461063f578063bb24882e14610611578063c4e833ce14610482578063d21220a71461043d578063dc4c90d3146103f8578063dc98354e14610375578063e14090b91461023b578063e1b4af6914610215578063e31b3091146101ec578063e3925489146101c1578063eb91d37e1461019e5763f851a44014610173575f80fd5b3461019b578060031936011261019b576004546040516001600160a01b039091168152602090f35b80fd5b503461019b578060031936011261019b5760206101b9611444565b604051908152f35b503461019b578060031936011261019b57602060ff60035460a01c166101ea6040518092611297565bf35b503461019b578060031936011261019b576001546040516001600160a01b039091168152602090f35b503461019b5761022436611240565b505050505050602060405163e1b4af6960e01b8152f35b503461019b57606036600319011261019b576044358015158091036103715760016005541461035f57600160055560ff60035460a01c16600481101561034b57600214610339576002546001600160a01b03169081156103275782916064602092604051958693849263bd2d447d60e01b84526004356004850152602435602485015260448401525af190811561031b5780916102e2575b60209250600555604051908152f35b90506020823d602011610313575b816102fd602093836112d4565b8101031261030f5760209151906102d3565b5f80fd5b3d91506102f0565b604051903d90823e3d90fd5b604051632221fe0f60e01b8152600490fd5b60405163a0042b1760e01b8152600490fd5b634e487b7160e01b83526021600452602483fd5b6040516345f5ce8b60e11b8152600490fd5b5080fd5b503461019b5760e036600319011261019b5761038f6110ff565b5060a036602319011261019b576103a461122a565b507f00000000000000000000000000000000000000000000000000000000000000006001600160a01b031633036103e757604051636e4c1aa760e11b8152602090f35b6040516282b42960e81b8152600490fd5b503461019b578060031936011261019b576040517f00000000000000000000000000000000000000000000000000000000000000006001600160a01b03168152602090f35b503461019b578060031936011261019b576040517f00000000000000000000000000000000000000000000000000000000000000006001600160a01b03168152602090f35b503461019b578060031936011261019b57806101c0916101a06040516104a7816112b8565b8281528260208201528260408201528260608201528260808201528260a08201528260c08201528260e08201528261010082015282610120820152826101408201528261016082015282610180820152015260405190610506826112b8565b600182528060208301528060408301528060608301528060808301528060a0830152600160c0830152600160e08301528061010083015280610120830152600161014083015280610160830152806101808301526101a08201526101a0604051916001835260208101511515602084015260408101511515604084015260608101511515606084015260808101511515608084015260a0810151151560a084015260c0810151151560c084015260e0810151151560e084015261010081015115156101008401526101208101511515610120840152610140810151151561014084015261016081015115156101608401526101808101511515610180840152015115156101a0820152f35b503461019b578060031936011261019b57606061062c6113d3565b9060405192835260208301526040820152f35b503461019b578060031936011261019b576003546040516001600160a01b039091168152602090f35b503461019b5761067736611240565b5050505050506020604051635b54587d60e11b8152f35b503461019b5761016036600319011261019b576106a96110ff565b5060a036602319011261019b5760603660c319011261019b57610144356001600160401b03811161037157906106e56040923690600401611131565b505081519063b47b2fb160e01b82526020820152f35b503461019b57602036600319011261019b576107156110ff565b6004546001600160a01b039190821633036103e7575f8051602061155483398151915291608091168060018060a01b03198554161784556040519060408252600460408301526356414d4d60e01b60608301526020820152a180f35b503461019b57610780366111c1565b50505050505050604080516327c18fbf60e21b81525f6020820152f35b503461019b578060031936011261019b57546040516001600160a01b039091168152602090f35b503461019b57602036600319011261019b576004356004811015610371576004546001600160a01b031633036103e757604060ff61084f7f73f069d8a008c9e2fe78e308751100d873455f99593c7d60eff545e91a90ab04936108456003548460a01b8360a01b168560a01b19821617600355855194859160a01c16611297565b6020830190611297565ba180f35b503461019b57602036600319011261019b5761086d6110ff565b600454906001600160a01b039081831633036103e7576001600160a01b031990921691161760045580f35b503461019b5761010036600319011261019b576108b36110ff565b5060a036602319011261019b576108c861122a565b5060e4358060020b0361019b57604051636fe7e6eb60e01b8152602090f35b503461019b576108f6366111c1565b5050505050505060408051633615df3f60e11b81525f6020820152f35b503461019b57602036600319011261019b5761092d6110ff565b6004546001600160a01b039190821633036103e7575f8051602061155483398151915291608091168060018060a01b031960015416176001556040519060408252600360408301526246656560e81b60608301526020820152a180f35b503461019b5761014036600319011261019b576109a56110ff565b9060a036602319011261019b576060918260c31936011261037157610124356001600160401b038111610e81576109e0903690600401611131565b50507f00000000000000000000000000000000000000000000000000000000000000006001600160a01b031633036103e75760016005541461035f57600160055560e43582811215610e7b57600160ff1b8114610e67578203905b60c435908115158203610e635760035460ff8160a01c166004811015610e4f5760028103610c8b57505083546001600160a01b031680156103275760408051631abd6b8560e31b8152918290818881610a98898b600484016113a7565b03925af18015610c805785918691610c4f575b5060015490919082906001600160a01b03168015610c2b578754604051635d92441760e11b8152908a90829060049082906001600160a01b03165afa918215610c205789918a93610bea575b506020929389610b1d60405196879586948594635f72330760e01b865260048601611115565b03915afa908115610bdf578791610b90575b50925f805160206115748339815191529260a09262ffffff979695965b60405196151587526020870152604086015288850152426080850152600180831b031692a282600555604051926315d7892d60e21b84526020840152166040820152f35b90506020813d602011610bd7575b81610bab602093836112d4565b81010312610bd3575162ffffff81168103610bd3575f80516020611574833981519152610b2f565b8680fd5b3d9150610b9e565b6040513d89823e3d90fd5b60209350610c0f9192508b3d8d11610c19575b610c0781836112d4565b8101906113b8565b5091909192610af7565b503d610bfd565b6040513d8b823e3d90fd5b505062ffffff9493925f805160206115748339815191529260a092610bb896610b4c565b9050610c73915060403d604011610c79575b610c6b81836112d4565b810190611391565b5f610aab565b503d610c61565b6040513d87823e3d90fd5b80610d1e5750506002546001600160a01b031680156103275760408051631abd6b8560e31b8152918290818881610cc6898b600484016113a7565b03925af18015610c805762ffffff9493925f805160206115748339815191529260a09288918991610cfd575b50906103e896610b4c565b9050610d18915060403d604011610c7957610c6b81836112d4565b5f610cf2565b600103610dd557506002546001600160a01b0316158015610dc3575b61032757835460408051631abd6b8560e31b81529182906001600160a01b0316818881610d6b898b600484016113a7565b03925af18015610c805762ffffff9493925f805160206115748339815191529260a09288918991610da2575b50906107d096610b4c565b9050610dbd915060403d604011610c7957610c6b81836112d4565b5f610d97565b5083546001600160a01b031615610d3a565b6001600160a01b03168015610327576040805163796da7af60e01b815291829060049082905afa908115610c805762ffffff9493925f805160206115748339815191529260a0928891610e2f575b5087906101f496610b4c565b610e48915060403d604011610c7957610c6b81836112d4565b505f610e23565b634e487b7160e01b86526021600452602486fd5b8380fd5b634e487b7160e01b83526011600452602483fd5b90610a3b565b8280fd5b503461019b578060031936011261019b576002546040516001600160a01b039091168152602090f35b503461030f57602036600319011261030f5760016005541461035f5760016005556002546001600160a01b0316801561032757803b1561030f575f809160246040518094819363514fcac760e01b835260043560048401525af18015610f4957610f1b575b508060055580f35b90506001600160401b038111610f35576040525f80610f13565b634e487b7160e01b5f52604160045260245ffd5b6040513d5f823e3d90fd5b3461030f57602036600319011261030f57610f6d6110ff565b6004546001600160a01b039190821633036103e7575f8051602061155483398151915291608091168060018060a01b03196003541617600355604051906040825260066040830152654f7261636c6560d01b60608301526020820152a1005b3461030f57610fda3661115e565b5050505050602060405163259982e560e01b8152f35b3461030f57610ffe3661115e565b5050505050602060405163021d0ee760e41b8152f35b3461030f575f36600319011261030f5761103f61102f6112f7565b9060409492945194859485611115565b0390f35b3461030f57602036600319011261030f5761105c6110ff565b6004546001600160a01b039190821633036103e7575f8051602061155483398151915291608091168060018060a01b03196002541617600255604051906040825260096040830152684f72646572626f6f6b60b81b60608301526020820152a1005b3461030f575f36600319011261030f577f00000000000000000000000000000000000000000000000000000000000000006001600160a01b03168152602090f35b600435906001600160a01b038216820361030f57565b9094939260609260808301968352602083015260408201520152565b9181601f8401121561030f578235916001600160401b03831161030f576020838186019501011161030f57565b9061016060031983011261030f576004356001600160a01b038116810361030f579160a060231982011261030f57602491608060c31983011261030f5760c49161014435906001600160401b03821161030f576111bd91600401611131565b9091565b906101a060031983011261030f576004356001600160a01b038116810361030f579160a060231982011261030f57602491608060c31983011261030f5760c4916101443591610164359161018435906001600160401b03821161030f576111bd91600401611131565b60c435906001600160a01b038216820361030f57565b61012060031982011261030f576004356001600160a01b038116810361030f579160a060231983011261030f5760249160c4359160e4359161010435906001600160401b03821161030f576111bd91600401611131565b9060048210156112a45752565b634e487b7160e01b5f52602160045260245ffd5b6101c081019081106001600160401b03821117610f3557604052565b601f909101601f19168101906001600160401b03821190821017610f3557604052565b5f546001600160a01b0316801561138657608060049160405192838092630c417d1f60e41b82525afa8015610f49575f925f935f935f9361133a575b5093929190565b9450509150506080823d60801161137e575b81611359608093836112d4565b8101031261030f5781516020830151604084015160609094015190939290915f611333565b3d915061134c565b505f905f905f905f90565b919082604091031261030f576020825192015190565b908152901515602082015260400190565b9081606091031261030f578051916040602083015192015190565b5f546001600160a01b0316801561143b5790606060049260405193848092635d92441760e11b82525afa908115610f49575f80935f93611414575b50929190565b91935050611431915060603d606011610c1957610c0781836112d4565b929092915f61140e565b505f905f905f90565b60035460ff8160a01c1660048110156112a4576002811480611540575b156114cd5750505f54604051634c6afee560e11b815290602090829060049082906001600160a01b03165afa908115610f49575f9161149e575090565b90506020813d6020116114c5575b816114b9602093836112d4565b8101031261030f575190565b3d91506114ac565b6003148061152e575b6114df57505f90565b6040805163796da7af60e01b815291829060049082906001600160a01b03165afa908115610f49575f91611511575090565b61152a915060403d604011610c7957610c6b81836112d4565b5090565b506001600160a01b03811615156114d6565b505f546001600160a01b0316151561146156fe039649ee2a1e8ce6cfd928166088b0ebc3b0f26bab9b87198eec89f8c706912c4dc433f9a189d874931849d1de6f36c572dc504cf16cc70ad7c9e3bbd38a1161a264697066735822122010f808744375a5a9338fbe8f01bf0d37d294d2dda6a1d94bed078da89f56c7b564736f6c63430008180033","linkReferences":{}},"methodIdentifiers":{"admin()":"f851a440","afterAddLiquidity(address,(address,address,uint24,int24,address),(int24,int24,int256,bytes32),int256,int256,bytes)":"9f063efc","afterDonate(address,(address,address,uint24,int24,address),uint256,uint256,bytes)":"e1b4af69","afterInitialize(address,(address,address,uint24,int24,address),uint160,int24)":"6fe7e6eb","afterRemoveLiquidity(address,(address,address,uint24,int24,address),(int24,int24,int256,bytes32),int256,int256,bytes)":"6c2bbe7e","afterSwap(address,(address,address,uint24,int24,address),(bool,int256,uint160),int256,bytes)":"b47b2fb1","beforeAddLiquidity(address,(address,address,uint24,int24,address),(int24,int24,int256,bytes32),bytes)":"259982e5","beforeDonate(address,(address,address,uint24,int24,address),uint256,uint256,bytes)":"b6a8b0fa","beforeInitialize(address,(address,address,uint24,int24,address),uint160)":"dc98354e","beforeRemoveLiquidity(address,(address,address,uint24,int24,address),(int24,int24,int256,bytes32),bytes)":"21d0ee70","beforeSwap(address,(address,address,uint24,int24,address),(bool,int256,uint160),bytes)":"575e24b4","cancelOrder(uint256)":"514fcac7","curveMode()":"e3925489","feeEngine()":"e31b3091","getCurrentPrice()":"eb91d37e","getHookPermissions()":"c4e833ce","getOpenInterest()":"bb24882e","getVAMMState()":"16dd4672","oracleEngine()":"ba2423fa","orderbookEngine()":"52765b6f","placeLimitOrder(uint256,uint256,bool)":"e14090b9","poolManager()":"dc4c90d3","setCurveMode(uint8)":"97faa769","setFeeEngine(address)":"5b92935c","setOracleEngine(address)":"2a6d35aa","setOrderbookEngine(address)":"169b4411","setVAMMEngine(address)":"9f6814e6","token0()":"0dfe1681","token1()":"d21220a7","transferAdmin(address)":"75829def","vammEngine()":"99081c74"},"id":68}