{"abi":[{"type":"constructor","inputs":[],"stateMutability":"nonpayable"},{"type":"function","name":"admin","inputs":[],"outputs":[{"name":"","type":"address","internalType":"address"}],"stateMutability":"view"},{"type":"function","name":"getOraclePrice","inputs":[],"outputs":[{"name":"price","type":"uint256","internalType":"uint256"},{"name":"timestamp","type":"uint256","internalType":"uint256"}],"stateMutability":"view"},{"type":"function","name":"isOracleHealthy","inputs":[],"outputs":[{"name":"","type":"bool","internalType":"bool"}],"stateMutability":"view"},{"type":"function","name":"lastUpdate","inputs":[],"outputs":[{"name":"","type":"uint256","internalType":"uint256"}],"stateMutability":"view"},{"type":"function","name":"mockPrice","inputs":[],"outputs":[{"name":"","type":"uint256","internalType":"uint256"}],"stateMutability":"view"},{"type":"function","name":"priceFeed","inputs":[],"outputs":[{"name":"","type":"address","internalType":"address"}],"stateMutability":"view"},{"type":"function","name":"setMockPrice","inputs":[{"name":"price","type":"uint256","internalType":"uint256"}],"outputs":[],"stateMutability":"nonpayable"},{"type":"function","name":"setPriceFeed","inputs":[{"name":"feed","type":"address","internalType":"address"}],"outputs":[],"stateMutability":"nonpayable"}],"bytecode":{"object":"0x6080806040523461003a57690eb344079513a1300000600155600380546001600160a01b03191633179055426002556103d4908161003f8239f35b5f80fdfe6040608081526004361015610012575f80fd5b5f3560e01c908163724e78da14610192578163741bef1a1461016c578163796da7af14610148578163a434e8131461010b578163c0463711146100ee578163c7207e74146100d1578163f851a440146100aa575063feca9cc014610074575f80fd5b346100a65760203660031901126100a65761009a60018060a01b036003541633146101dd565b60043560015542600255005b5f80fd5b346100a6575f3660031901126100a65760035490516001600160a01b039091168152602090f35b346100a6575f3660031901126100a6576020906001549051908152f35b346100a6575f3660031901126100a6576020906002549051908152f35b346100a6575f3660031901126100a657600254420342811161013457610e106020925191108152f35b634e487b7160e01b5f52601160045260245ffd5b346100a6575f3660031901126100a65761016061022c565b82519182526020820152f35b346100a6575f3660031901126100a6575f5490516001600160a01b039091168152602090f35b346100a65760203660031901126100a6576004356001600160a01b03818116918290036100a6576101c8906003541633146101dd565b5f80546001600160a01b031916919091179055005b156101e457565b60405162461bcd60e51b815260206004820152600c60248201526b155b985d5d1a1bdc9a5e995960a21b6044820152606490fd5b51906001600160501b03821682036100a657565b5f546001600160a01b03168061024757506001549060025490565b9060a060049260405193848092633fabe5a360e21b82525afa918215610393575f905f93610317575b505f8113156102da57821561029a576402540be40090818102918183041490151715610134579190565b60405162461bcd60e51b815260206004820152601860248201527713dc9858db194e88125b98dbdb5c1b195d19481c9bdd5b9960421b6044820152606490fd5b60405162461bcd60e51b81526020600482015260156024820152744f7261636c653a20496e76616c696420707269636560581b6044820152606490fd5b92505060a03d60a01161038c575b601f8101601f191683016001600160401b038111848210176103785760a0918491604052810103126100a65761035a82610218565b506020820151610371608060608501519401610218565b505f610270565b634e487b7160e01b5f52604160045260245ffd5b503d610325565b6040513d5f823e3d90fdfea2646970667358221220f93f1260d13115174bc3559995a0df1ceb9626379763c82780597f4e6ebb1ae864736f6c63430008180033","linkReferences":{}},"methodIdentifiers":{"admin()":"f851a440","getOraclePrice()":"796da7af","isOracleHealthy()":"a434e813","lastUpdate()":"c0463711","mockPrice()":"c7207e74","priceFeed()":"741bef1a","setMockPrice(uint256)":"feca9cc0","setPriceFeed(address)":"724e78da"},"id":38}