{"abi":[{"type":"constructor","inputs":[{"name":"_baseDepth","type":"uint256","internalType":"uint256"},{"name":"_baseVolatility","type":"uint256","internalType":"uint256"},{"name":"_maxVolatility","type":"uint256","internalType":"uint256"}],"stateMutability":"nonpayable"},{"type":"function","name":"CURVE_PRECISION","inputs":[],"outputs":[{"name":"","type":"uint256","internalType":"uint256"}],"stateMutability":"view"},{"type":"function","name":"MAX_PRICE","inputs":[],"outputs":[{"name":"","type":"uint256","internalType":"uint256"}],"stateMutability":"view"},{"type":"function","name":"MIN_QUANTITY","inputs":[],"outputs":[{"name":"","type":"uint256","internalType":"uint256"}],"stateMutability":"view"},{"type":"function","name":"PRICE_PRECISION","inputs":[],"outputs":[{"name":"","type":"uint256","internalType":"uint256"}],"stateMutability":"view"},{"type":"function","name":"admin","inputs":[],"outputs":[{"name":"","type":"address","internalType":"address"}],"stateMutability":"view"},{"type":"function","name":"baseDepth","inputs":[],"outputs":[{"name":"","type":"uint256","internalType":"uint256"}],"stateMutability":"view"},{"type":"function","name":"baseVolatility","inputs":[],"outputs":[{"name":"","type":"uint256","internalType":"uint256"}],"stateMutability":"view"},{"type":"function","name":"calculateCurvePrice","inputs":[],"outputs":[{"name":"price","type":"uint256","internalType":"uint256"}],"stateMutability":"view"},{"type":"function","name":"calculatePriceSensitivity","inputs":[],"outputs":[{"name":"sensitivity","type":"uint256","internalType":"uint256"}],"stateMutability":"view"},{"type":"function","name":"closePosition","inputs":[{"name":"size","type":"uint256","internalType":"uint256"},{"name":"isLong","type":"bool","internalType":"bool"}],"outputs":[{"name":"executionPrice","type":"uint256","internalType":"uint256"}],"stateMutability":"nonpayable"},{"type":"function","name":"cumulativeFlow","inputs":[],"outputs":[{"name":"","type":"int256","internalType":"int256"}],"stateMutability":"view"},{"type":"function","name":"effectiveDepth","inputs":[],"outputs":[{"name":"","type":"uint256","internalType":"uint256"}],"stateMutability":"view"},{"type":"function","name":"effectiveVolatility","inputs":[],"outputs":[{"name":"","type":"uint256","internalType":"uint256"}],"stateMutability":"view"},{"type":"function","name":"executeTrade","inputs":[{"name":"size","type":"uint256","internalType":"uint256"},{"name":"isLong","type":"bool","internalType":"bool"}],"outputs":[{"name":"executionPrice","type":"uint256","internalType":"uint256"},{"name":"priceImpact","type":"uint256","internalType":"uint256"}],"stateMutability":"nonpayable"},{"type":"function","name":"getCurveState","inputs":[],"outputs":[{"name":"k","type":"uint256","internalType":"uint256"},{"name":"q","type":"uint256","internalType":"uint256"},{"name":"price","type":"uint256","internalType":"uint256"},{"name":"sensitivity","type":"uint256","internalType":"uint256"}],"stateMutability":"view"},{"type":"function","name":"getKyleModelState","inputs":[],"outputs":[{"name":"lambda","type":"uint256","internalType":"uint256"},{"name":"flow","type":"int256","internalType":"int256"},{"name":"depth","type":"uint256","internalType":"uint256"}],"stateMutability":"view"},{"type":"function","name":"getOpenInterest","inputs":[],"outputs":[{"name":"longOI","type":"uint256","internalType":"uint256"},{"name":"shortOI","type":"uint256","internalType":"uint256"},{"name":"netOI","type":"int256","internalType":"int256"}],"stateMutability":"view"},{"type":"function","name":"getPrice","inputs":[],"outputs":[{"name":"price","type":"uint256","internalType":"uint256"}],"stateMutability":"view"},{"type":"function","name":"getVolatilityInfo","inputs":[],"outputs":[{"name":"baseVol","type":"uint256","internalType":"uint256"},{"name":"effectiveVol","type":"uint256","internalType":"uint256"},{"name":"longOI","type":"uint256","internalType":"uint256"},{"name":"shortOI","type":"uint256","internalType":"uint256"}],"stateMutability":"view"},{"type":"function","name":"initialize","inputs":[{"name":"initialPrice","type":"uint256","internalType":"uint256"},{"name":"initialQuantity","type":"uint256","internalType":"uint256"}],"outputs":[],"stateMutability":"nonpayable"},{"type":"function","name":"isInitialized","inputs":[],"outputs":[{"name":"","type":"bool","internalType":"bool"}],"stateMutability":"view"},{"type":"function","name":"kyleLambda","inputs":[],"outputs":[{"name":"","type":"uint256","internalType":"uint256"}],"stateMutability":"view"},{"type":"function","name":"kyleLastUpdateBlock","inputs":[],"outputs":[{"name":"","type":"uint256","internalType":"uint256"}],"stateMutability":"view"},{"type":"function","name":"lastCurvePrice","inputs":[],"outputs":[{"name":"","type":"uint256","internalType":"uint256"}],"stateMutability":"view"},{"type":"function","name":"maxVolatility","inputs":[],"outputs":[{"name":"","type":"uint256","internalType":"uint256"}],"stateMutability":"view"},{"type":"function","name":"poolConstant","inputs":[],"outputs":[{"name":"","type":"uint256","internalType":"uint256"}],"stateMutability":"view"},{"type":"function","name":"simulateTrade","inputs":[{"name":"size","type":"uint256","internalType":"uint256"},{"name":"isLong","type":"bool","internalType":"bool"}],"outputs":[{"name":"price","type":"uint256","internalType":"uint256"},{"name":"impact","type":"uint256","internalType":"uint256"}],"stateMutability":"view"},{"type":"function","name":"totalLongPositions","inputs":[],"outputs":[{"name":"","type":"uint256","internalType":"uint256"}],"stateMutability":"view"},{"type":"function","name":"totalShortPositions","inputs":[],"outputs":[{"name":"","type":"uint256","internalType":"uint256"}],"stateMutability":"view"},{"type":"function","name":"transferAdmin","inputs":[{"name":"newAdmin","type":"address","internalType":"address"}],"outputs":[],"stateMutability":"nonpayable"},{"type":"function","name":"vBTCQuantity","inputs":[],"outputs":[{"name":"","type":"uint256","internalType":"uint256"}],"stateMutability":"view"},{"type":"function","name":"vUSDCReserve","inputs":[],"outputs":[{"name":"","type":"uint256","internalType":"uint256"}],"stateMutability":"view"},{"type":"function","name":"volatilityLongOI","inputs":[],"outputs":[{"name":"","type":"uint256","internalType":"uint256"}],"stateMutability":"view"},{"type":"function","name":"volatilityShortOI","inputs":[],"outputs":[{"name":"","type":"uint256","internalType":"uint256"}],"stateMutability":"view"},{"type":"event","name":"CurveInitialized","inputs":[{"name":"poolConstant","type":"uint256","indexed":false,"internalType":"uint256"},{"name":"quantity","type":"uint256","indexed":false,"internalType":"uint256"},{"name":"price","type":"uint256","indexed":false,"internalType":"uint256"}],"anonymous":false},{"type":"event","name":"CurveTradeExecuted","inputs":[{"name":"isLong","type":"bool","indexed":false,"internalType":"bool"},{"name":"size","type":"uint256","indexed":false,"internalType":"uint256"},{"name":"executionPrice","type":"uint256","indexed":false,"internalType":"uint256"},{"name":"priceImpact","type":"uint256","indexed":false,"internalType":"uint256"},{"name":"kyleLambda","type":"uint256","indexed":false,"internalType":"uint256"},{"name":"effectiveVolatility","type":"uint256","indexed":false,"internalType":"uint256"}],"anonymous":false},{"type":"event","name":"KyleParametersUpdated","inputs":[{"name":"lambda","type":"uint256","indexed":false,"internalType":"uint256"},{"name":"depth","type":"uint256","indexed":false,"internalType":"uint256"}],"anonymous":false},{"type":"event","name":"PositionClosed","inputs":[{"name":"isLong","type":"bool","indexed":false,"internalType":"bool"},{"name":"size","type":"uint256","indexed":false,"internalType":"uint256"},{"name":"closePrice","type":"uint256","indexed":false,"internalType":"uint256"}],"anonymous":false},{"type":"event","name":"TransientStateStored","inputs":[{"name":"slot","type":"bytes32","indexed":false,"internalType":"bytes32"},{"name":"value","type":"uint256","indexed":false,"internalType":"uint256"}],"anonymous":false},{"type":"event","name":"VolatilityUpdated","inputs":[{"name":"newVolatility","type":"uint256","indexed":false,"internalType":"uint256"},{"name":"longOI","type":"uint256","indexed":false,"internalType":"uint256"},{"name":"shortOI","type":"uint256","indexed":false,"internalType":"uint256"}],"anonymous":false},{"type":"error","name":"AlreadyInitialized","inputs":[]},{"type":"error","name":"InvalidInput","inputs":[{"name":"reason","type":"string","internalType":"string"}]},{"type":"error","name":"NotInitialized","inputs":[]},{"type":"error","name":"ReentrancyGuard","inputs":[]},{"type":"error","name":"Unauthorized","inputs":[]}],"bytecode":{"object":"0x60803461017757601f61138238819003918201601f191683019291906001600160401b0384118385101761017b578160609284926040968752833981010312610177578051908260208201519101519180156101465781156101105782156100db5760068054610100600160a81b0319163360081b610100600160a81b03161790556009819055600a819055670de0b6b3a76400008202670de0b6b3a763ffff19838204016100c7570460075543600b5580600c55600d55600e55516111f290816101908239f35b634e487b7160e01b5f52601160045260245ffd5b835163d647364f60e01b815260206004820152600d60248201526c6d6178566f6c6174696c69747960981b6044820152606490fd5b835163d647364f60e01b815260206004820152600e60248201526d62617365566f6c6174696c69747960901b6044820152606490fd5b835163d647364f60e01b81526020600482015260096024820152680c4c2e6ca88cae0e8d60bb1b6044820152606490fd5b5f80fd5b634e487b7160e01b5f52604160045260245ffdfe6080604090808252600480361015610015575f80fd5b5f3560e01c918262621b1c14610cce5750816301c11d9614610ca6578163097d9c2514610c885781631c2aef8614610c6b5781631ff2d4e914610c485781632d44dc2414610c2c578163392e53cd14610c09578163427d8d1314610beb57816356df6a4714610bcd5781635c3f194a14610baf5781635ee19b9514610b915781636cb925fa14610b73578163710b70d314610b5557816375829def14610aec5781637f0d0ff514610ace57816380f21c0314610ab057816395082d2514610a5b57816398d5fdca1461096f5781639efc188614610a8c578163a3dc7f0514610a60578163a71e89a714610a5b578163bb24882e14610a28578163bbe024a914610a0a578163c417d1f0146109d1578163c6222283146109b3578163c924ebe714610995578163cb09c97814610974578163ce8c4c1d1461096f578163d0ac65cb14610940578163d5eb5c2814610565578163dc7ff4e314610547578163e4a3011614610402578163e4a60d45146101c4575063f851a44014610195575f80fd5b346101c0575f3660031901126101c057600654905160089190911c6001600160a01b03168152602090f35b5f80fd5b82346101c0576101d336610d2c565b60ff60069392935416156103f2575f8051602061117d83398151915290815c6103e25760019384835d5f8051602061115d8339815191529581875d84519687525f8051602061113d83398151915285602098848a820152a182156103025780548083116102c55792826060926102595f8051602061119d833981519152955f9897610e24565b9055610266818954610e17565b88555b610283610274610f8c565b98896003558754905490610d8e565b6002558186146102bc576102a161029982610e31565b60085461105e565b60085586519115158252888201528686820152a15d51908152f35b6102a181610299565b855163d647364f60e01b8152808301899052601660248201527565786365656473206c6f6e6720706f736974696f6e7360501b6044820152606490fd5b6005548083116103a4578261031691610e24565b60055585549066038d7ea4c67fff1982018281116103915783101561035b57505f9392826103545f8051602061119d83398151915294606094610e24565b8855610269565b855163d647364f60e01b8152908101889052600f60248201526e636c6f736520746f6f206c6172676560881b6044820152606490fd5b601182634e487b7160e01b5f525260245ffd5b855163d647364f60e01b81528083018990526017602482015276657863656564732073686f727420706f736974696f6e7360481b6044820152606490fd5b82516345f5ce8b60e11b81528590fd5b81516321c4e35760e21b81528490fd5b9050346101c057816003193601126101c05760065460243591803590600883901c6001600160a01b0316330361053a5760ff831661052d5781156104fa5766038d7ea4c6800084106104ba57506104b5907fe537ebbc925dd7137718b02a0aa1ca750fbd359132f3a67c6f632677a755ab5e94846001558160035560016104928661048d8186610d67565b610d67565b94855f556104a08787610d8e565b60025560ff1916176006555193849384610fcb565b0390a1005b606490602086519163d647364f60e01b835282015260196024820152781a5b9a5d1a585b145d585b9d1a5d1e481d1bdbc81cdb585b1b603a1b6044820152fd5b606490602086519163d647364f60e01b8352820152600c60248201526b696e697469616c507269636560a01b6044820152fd5b845162dc149f60e41b8152fd5b84516282b42960e81b8152fd5b82346101c0575f3660031901126101c0576020906009549051908152f35b9050346101c05761057536610d2c565b60ff6006541615610930575f8051602061117d83398151915290815c6109205760019283835d80156108f0575f8051602061113d833981519152865f8051602061115d83398151915283815d8151908152836020820152a16105d5610f8c565b9482156108d057845466038d7ea4c67fff1981018181116108355783101561089a578261060191610e24565b9461060d838354610e17565b82555b85815561067b610673610621610f8c565b861561088c57855b61063e61063582610fe1565b9160085461105e565b6008555f811261085c5790670de0b6b3a764000061065d920490610e17565b8060035561066b818b610e17565b841c99611011565b965f54610d8e565b60025583156108485761069083600f54610e17565b600f555b600f54610df1908181029181830414901517156108355764e8d4a5100060105461068e9081810291818304149015171561082257935f9796936107037f1734b65e5386c208c1f71e200f5d2f010c5484371c839f95b016cc96ba6dc9f29794846107909560c099049104610f74565b898112158a146107ef5761071a9150600c54610e17565b600d555b600d54600e548091116107e6575b507f727b97dabf0ab6144b1124992b57b68f417c34bc65df33a10d9982cb98584d528b61075e600954600c5490610d67565b61076b600d548092610d8e565b600a55610783600f5492601054905193849384610fcb565b0390a15460055490610e17565b61079981611079565b6107d5575b50600754600d54918a5193151584526020840152888a840152876060840152608083015260a0820152a15d82519182526020820152f35b6107dd6110cf565b6011555f61079e565b600d555f61072c565b6107f890610e31565b90600c5491828110158b1461081257501c5b600d5561071e565b905061081d91610e24565b61080a565b601185634e487b7160e01b5f525260245ffd5b601183634e487b7160e01b5f525260245ffd5b61085483601054610e17565b601055610694565b61086e670de0b6b3a764000091610e31565b0481811061087d575b5061065d565b61088691610e24565b5f610877565b61089586610e31565b610629565b875163d647364f60e01b8152602081840152600f60248201526e747261646520746f6f206c6172676560881b6044820152606490fd5b6108db828654610e17565b946108e883600554610e17565b600555610610565b855163d647364f60e01b815260208187015260096024820152687a65726f2073697a6560b81b6044820152606490fd5b84516345f5ce8b60e11b81528490fd5b83516321c4e35760e21b81528390fd5b82346101c0575f3660031901126101c0576060906007549060085490600a549181519384526020840152820152f35b610d0a565b82346101c0575f3660031901126101c0576020905166038d7ea4c680008152f35b82346101c0575f3660031901126101c0576020906005549051908152f35b82346101c0575f3660031901126101c0576020906003549051908152f35b82346101c0575f3660031901126101c0575f54610a06600154926109f3610f8c565b6109fb610dac565b915194859485610d4b565b0390f35b82346101c0575f3660031901126101c057602090600c549051908152f35b82346101c0575f3660031901126101c0579054600554606092610a4b8284610f74565b9181519384526020840152820152f35b610ce8565b82346101c0575f3660031901126101c057600c54610a06600d5492600f54601054915194859485610d4b565b82346101c057610aa4610a9e36610d2c565b90610e41565b82519182526020820152f35b82346101c0575f3660031901126101c057602090600a549051908152f35b82346101c0575f3660031901126101c0576020906010549051908152f35b9050346101c05760203660031901126101c0576001600160a01b03918135919083831683036101c057600654938460081c163303610b49575050610100600160a81b031990911660089190911b610100600160a81b031617600655005b516282b42960e81b8152fd5b82346101c0575f3660031901126101c057602090600e549051908152f35b82346101c0575f3660031901126101c057602090600f549051908152f35b82346101c0575f3660031901126101c0576020906008549051908152f35b82346101c0575f3660031901126101c057602090600b549051908152f35b82346101c0575f3660031901126101c0576020906001549051908152f35b82346101c0575f3660031901126101c0576020906007549051908152f35b82346101c0575f3660031901126101c05760209060ff6006541690519015158152f35b82346101c0575f3660031901126101c057602091549051908152f35b82346101c0575f3660031901126101c057602090610c64610dac565b9051908152f35b82346101c0575f3660031901126101c0576020905f549051908152f35b82346101c0575f3660031901126101c0576020906002549051908152f35b82346101c0575f3660031901126101c057516a0c097ce7bc90715b34b9f160241b8152602090f35b346101c0575f3660031901126101c057602090600d548152f35b346101c0575f3660031901126101c0576020604051670de0b6b3a76400008152f35b346101c0575f3660031901126101c0576020610d24610f8c565b604051908152f35b60409060031901126101c0576004359060243580151581036101c05790565b9094939260609260808301968352602083015260408201520152565b81810292918115918404141715610d7a57565b634e487b7160e01b5f52601160045260245ffd5b8115610d98570490565b634e487b7160e01b5f52601260045260245ffd5b60015466038d7ea4c680008110610e0457610ddb670de0b6b3a76400009182610dd58280610d67565b04610d67565b048015610e04575f54906001600160ff1b0382168203610d7a57610e019160011b610d8e565b90565b506a0c097ce7bc90715b34b9f160241b90565b91908201809211610d7a57565b91908203918211610d7a57565b600160ff1b8114610d7a575f0390565b9190918015610f6457610e52610f8c565b928015610f525760015466038d7ea4c67fff198101818111610d7a57831015610f395782610e7f91610e24565b915b5f54908315610ef957610ea4610eaf92610e9e86610e0197610d67565b90610d8e565b9215610eeb57610fe1565b905f8212610ed45790610ec191610e17565b610ecb8185610e17565b60011c93611011565b610ee0610ee692610e31565b90610e24565b610ec1565b610ef490610e31565b610fe1565b60405162461bcd60e51b815260206004820152601860248201527743757276654d6174683a207a65726f207175616e7469747960401b6044820152606490fd5b506a0c097ce7bc90715b34b9f160241b93508392915050565b610f5e82600154610e17565b91610e81565b509050610f6f610f8c565b905f90565b81810392915f138015828513169184121617610d7a57565b60015466038d7ea4c680008110610e0457610fad90610e9e5f549180610d67565b906a0c097ce7bc90715b34b9f160241b808311610fc75750565b9150565b6040919493926060820195825260208201520152565b600754818102915f8212600160ff1b821416610d7a578183051490151715610d7a57670de0b6b3a7640000900590565b90811561105857818082111561104e5761102a91610e24565b90670de0b6b3a764000091828102928184041490151715610d7a57610e0191610d8e565b9061102a91610e24565b50505f90565b9190915f8382019384129112908015821691151617610d7a57565b6011549081156110c85781808211156110b95761109591610e24565b606481029080820460641490151715610d7a576005916110b491610d8e565b101590565b906110c391610e24565b611095565b9050151590565b600a54801561113957600d54670de0b6b3a764000090818102918183041490151715610d7a57816111237f02bab0ca1b77589cad0cd93cd75b88c4638221dd39c7b24a006a5ee490ab368c93604093610d8e565b908160075543600b5582519182526020820152a1565b5056fea71e4ad2f8f6ae5ce3cd7c88b13dc565971270fd1b245d050c52dc7140bea36ed73124c2655c90ecaea4665683f642a224288ca96b93ef0eb3d864ace25c1f0ba221487b1ad1fa84d6ce900988b537b8542f48f2a236737c41ff8cd278a010f44b38ad5ada46525ab2a6308b704bc5225f6d607bec11158c7f0852be50ae68c5a26469706673582212206584109e4eaab4c1e929217325ee21eff69ea8442c4c2cf6a231c213286c242364736f6c63430008180033","linkReferences":{}},"methodIdentifiers":{"CURVE_PRECISION()":"a71e89a7","MAX_PRICE()":"01c11d96","MIN_QUANTITY()":"cb09c978","PRICE_PRECISION()":"95082d25","admin()":"f851a440","baseDepth()":"dc7ff4e3","baseVolatility()":"bbe024a9","calculateCurvePrice()":"ce8c4c1d","calculatePriceSensitivity()":"1ff2d4e9","closePosition(uint256,bool)":"e4a60d45","cumulativeFlow()":"5ee19b95","effectiveDepth()":"80f21c03","effectiveVolatility()":"00621b1c","executeTrade(uint256,bool)":"d5eb5c28","getCurveState()":"c417d1f0","getKyleModelState()":"d0ac65cb","getOpenInterest()":"bb24882e","getPrice()":"98d5fdca","getVolatilityInfo()":"a3dc7f05","initialize(uint256,uint256)":"e4a30116","isInitialized()":"392e53cd","kyleLambda()":"427d8d13","kyleLastUpdateBlock()":"5c3f194a","lastCurvePrice()":"c6222283","maxVolatility()":"710b70d3","poolConstant()":"1c2aef86","simulateTrade(uint256,bool)":"9efc1886","totalLongPositions()":"2d44dc24","totalShortPositions()":"c924ebe7","transferAdmin(address)":"75829def","vBTCQuantity()":"56df6a47","vUSDCReserve()":"097d9c25","volatilityLongOI()":"6cb925fa","volatilityShortOI()":"7f0d0ff5"},"id":40}