{"abi":[{"type":"constructor","inputs":[{"name":"_poolManager","type":"address","internalType":"address"},{"name":"_token0","type":"address","internalType":"address"},{"name":"_token1","type":"address","internalType":"address"},{"name":"_initialSqrtPriceX96","type":"uint160","internalType":"uint160"},{"name":"_baseVolatility","type":"uint256","internalType":"uint256"},{"name":"_baseDepth","type":"uint256","internalType":"uint256"}],"stateMutability":"nonpayable"},{"type":"function","name":"ADMIN_ROLE","inputs":[],"outputs":[{"name":"","type":"bytes32","internalType":"bytes32"}],"stateMutability":"view"},{"type":"function","name":"ALPHA","inputs":[],"outputs":[{"name":"","type":"uint256","internalType":"uint256"}],"stateMutability":"view"},{"type":"function","name":"DEVIATION_THRESHOLD","inputs":[],"outputs":[{"name":"","type":"uint256","internalType":"uint256"}],"stateMutability":"view"},{"type":"function","name":"MAX_DELEVERAGING_DEVIATION","inputs":[],"outputs":[{"name":"","type":"uint256","internalType":"uint256"}],"stateMutability":"view"},{"type":"function","name":"MAX_HISTORY_LENGTH","inputs":[],"outputs":[{"name":"","type":"uint256","internalType":"uint256"}],"stateMutability":"view"},{"type":"function","name":"ORACLE_HEARTBEAT","inputs":[],"outputs":[{"name":"","type":"uint256","internalType":"uint256"}],"stateMutability":"view"},{"type":"function","name":"SCALE","inputs":[],"outputs":[{"name":"","type":"uint256","internalType":"uint256"}],"stateMutability":"view"},{"type":"function","name":"addLiquidity","inputs":[{"name":"tickLower","type":"int24","internalType":"int24"},{"name":"tickUpper","type":"int24","internalType":"int24"},{"name":"amount0Desired","type":"uint256","internalType":"uint256"},{"name":"amount1Desired","type":"uint256","internalType":"uint256"}],"outputs":[{"name":"liquidity","type":"uint128","internalType":"uint128"},{"name":"amount0","type":"uint256","internalType":"uint256"},{"name":"amount1","type":"uint256","internalType":"uint256"}],"stateMutability":"nonpayable"},{"type":"function","name":"afterAddLiquidity","inputs":[{"name":"sender","type":"address","internalType":"address"},{"name":"key","type":"tuple","internalType":"struct PoolKey","components":[{"name":"currency0","type":"address","internalType":"Currency"},{"name":"currency1","type":"address","internalType":"Currency"},{"name":"fee","type":"uint24","internalType":"uint24"},{"name":"tickSpacing","type":"int24","internalType":"int24"},{"name":"hooks","type":"address","internalType":"contract IHooks"}]},{"name":"params","type":"tuple","internalType":"struct ModifyLiquidityParams","components":[{"name":"tickLower","type":"int24","internalType":"int24"},{"name":"tickUpper","type":"int24","internalType":"int24"},{"name":"liquidityDelta","type":"int256","internalType":"int256"},{"name":"salt","type":"bytes32","internalType":"bytes32"}]},{"name":"delta","type":"int256","internalType":"BalanceDelta"},{"name":"feesAccrued","type":"int256","internalType":"BalanceDelta"},{"name":"hookData","type":"bytes","internalType":"bytes"}],"outputs":[{"name":"","type":"bytes4","internalType":"bytes4"},{"name":"","type":"int256","internalType":"BalanceDelta"}],"stateMutability":"nonpayable"},{"type":"function","name":"afterDonate","inputs":[{"name":"","type":"address","internalType":"address"},{"name":"","type":"tuple","internalType":"struct PoolKey","components":[{"name":"currency0","type":"address","internalType":"Currency"},{"name":"currency1","type":"address","internalType":"Currency"},{"name":"fee","type":"uint24","internalType":"uint24"},{"name":"tickSpacing","type":"int24","internalType":"int24"},{"name":"hooks","type":"address","internalType":"contract IHooks"}]},{"name":"","type":"uint256","internalType":"uint256"},{"name":"","type":"uint256","internalType":"uint256"},{"name":"","type":"bytes","internalType":"bytes"}],"outputs":[{"name":"","type":"bytes4","internalType":"bytes4"}],"stateMutability":"nonpayable"},{"type":"function","name":"afterInitialize","inputs":[{"name":"sender","type":"address","internalType":"address"},{"name":"key","type":"tuple","internalType":"struct PoolKey","components":[{"name":"currency0","type":"address","internalType":"Currency"},{"name":"currency1","type":"address","internalType":"Currency"},{"name":"fee","type":"uint24","internalType":"uint24"},{"name":"tickSpacing","type":"int24","internalType":"int24"},{"name":"hooks","type":"address","internalType":"contract IHooks"}]},{"name":"sqrtPriceX96","type":"uint160","internalType":"uint160"},{"name":"tick","type":"int24","internalType":"int24"}],"outputs":[{"name":"","type":"bytes4","internalType":"bytes4"}],"stateMutability":"nonpayable"},{"type":"function","name":"afterRemoveLiquidity","inputs":[{"name":"sender","type":"address","internalType":"address"},{"name":"key","type":"tuple","internalType":"struct PoolKey","components":[{"name":"currency0","type":"address","internalType":"Currency"},{"name":"currency1","type":"address","internalType":"Currency"},{"name":"fee","type":"uint24","internalType":"uint24"},{"name":"tickSpacing","type":"int24","internalType":"int24"},{"name":"hooks","type":"address","internalType":"contract IHooks"}]},{"name":"params","type":"tuple","internalType":"struct ModifyLiquidityParams","components":[{"name":"tickLower","type":"int24","internalType":"int24"},{"name":"tickUpper","type":"int24","internalType":"int24"},{"name":"liquidityDelta","type":"int256","internalType":"int256"},{"name":"salt","type":"bytes32","internalType":"bytes32"}]},{"name":"delta","type":"int256","internalType":"BalanceDelta"},{"name":"feesAccrued","type":"int256","internalType":"BalanceDelta"},{"name":"hookData","type":"bytes","internalType":"bytes"}],"outputs":[{"name":"","type":"bytes4","internalType":"bytes4"},{"name":"","type":"int256","internalType":"BalanceDelta"}],"stateMutability":"nonpayable"},{"type":"function","name":"afterSwap","inputs":[{"name":"sender","type":"address","internalType":"address"},{"name":"key","type":"tuple","internalType":"struct PoolKey","components":[{"name":"currency0","type":"address","internalType":"Currency"},{"name":"currency1","type":"address","internalType":"Currency"},{"name":"fee","type":"uint24","internalType":"uint24"},{"name":"tickSpacing","type":"int24","internalType":"int24"},{"name":"hooks","type":"address","internalType":"contract IHooks"}]},{"name":"params","type":"tuple","internalType":"struct SwapParams","components":[{"name":"zeroForOne","type":"bool","internalType":"bool"},{"name":"amountSpecified","type":"int256","internalType":"int256"},{"name":"sqrtPriceLimitX96","type":"uint160","internalType":"uint160"}]},{"name":"delta","type":"int256","internalType":"BalanceDelta"},{"name":"hookData","type":"bytes","internalType":"bytes"}],"outputs":[{"name":"","type":"bytes4","internalType":"bytes4"},{"name":"","type":"int128","internalType":"int128"}],"stateMutability":"nonpayable"},{"type":"function","name":"beforeAddLiquidity","inputs":[{"name":"sender","type":"address","internalType":"address"},{"name":"key","type":"tuple","internalType":"struct PoolKey","components":[{"name":"currency0","type":"address","internalType":"Currency"},{"name":"currency1","type":"address","internalType":"Currency"},{"name":"fee","type":"uint24","internalType":"uint24"},{"name":"tickSpacing","type":"int24","internalType":"int24"},{"name":"hooks","type":"address","internalType":"contract IHooks"}]},{"name":"params","type":"tuple","internalType":"struct ModifyLiquidityParams","components":[{"name":"tickLower","type":"int24","internalType":"int24"},{"name":"tickUpper","type":"int24","internalType":"int24"},{"name":"liquidityDelta","type":"int256","internalType":"int256"},{"name":"salt","type":"bytes32","internalType":"bytes32"}]},{"name":"hookData","type":"bytes","internalType":"bytes"}],"outputs":[{"name":"","type":"bytes4","internalType":"bytes4"}],"stateMutability":"nonpayable"},{"type":"function","name":"beforeDonate","inputs":[{"name":"","type":"address","internalType":"address"},{"name":"","type":"tuple","internalType":"struct PoolKey","components":[{"name":"currency0","type":"address","internalType":"Currency"},{"name":"currency1","type":"address","internalType":"Currency"},{"name":"fee","type":"uint24","internalType":"uint24"},{"name":"tickSpacing","type":"int24","internalType":"int24"},{"name":"hooks","type":"address","internalType":"contract IHooks"}]},{"name":"","type":"uint256","internalType":"uint256"},{"name":"","type":"uint256","internalType":"uint256"},{"name":"","type":"bytes","internalType":"bytes"}],"outputs":[{"name":"","type":"bytes4","internalType":"bytes4"}],"stateMutability":"nonpayable"},{"type":"function","name":"beforeInitialize","inputs":[{"name":"sender","type":"address","internalType":"address"},{"name":"key","type":"tuple","internalType":"struct PoolKey","components":[{"name":"currency0","type":"address","internalType":"Currency"},{"name":"currency1","type":"address","internalType":"Currency"},{"name":"fee","type":"uint24","internalType":"uint24"},{"name":"tickSpacing","type":"int24","internalType":"int24"},{"name":"hooks","type":"address","internalType":"contract IHooks"}]},{"name":"sqrtPriceX96","type":"uint160","internalType":"uint160"}],"outputs":[{"name":"","type":"bytes4","internalType":"bytes4"}],"stateMutability":"nonpayable"},{"type":"function","name":"beforeRemoveLiquidity","inputs":[{"name":"sender","type":"address","internalType":"address"},{"name":"key","type":"tuple","internalType":"struct PoolKey","components":[{"name":"currency0","type":"address","internalType":"Currency"},{"name":"currency1","type":"address","internalType":"Currency"},{"name":"fee","type":"uint24","internalType":"uint24"},{"name":"tickSpacing","type":"int24","internalType":"int24"},{"name":"hooks","type":"address","internalType":"contract IHooks"}]},{"name":"params","type":"tuple","internalType":"struct ModifyLiquidityParams","components":[{"name":"tickLower","type":"int24","internalType":"int24"},{"name":"tickUpper","type":"int24","internalType":"int24"},{"name":"liquidityDelta","type":"int256","internalType":"int256"},{"name":"salt","type":"bytes32","internalType":"bytes32"}]},{"name":"hookData","type":"bytes","internalType":"bytes"}],"outputs":[{"name":"","type":"bytes4","internalType":"bytes4"}],"stateMutability":"nonpayable"},{"type":"function","name":"beforeSwap","inputs":[{"name":"sender","type":"address","internalType":"address"},{"name":"key","type":"tuple","internalType":"struct PoolKey","components":[{"name":"currency0","type":"address","internalType":"Currency"},{"name":"currency1","type":"address","internalType":"Currency"},{"name":"fee","type":"uint24","internalType":"uint24"},{"name":"tickSpacing","type":"int24","internalType":"int24"},{"name":"hooks","type":"address","internalType":"contract IHooks"}]},{"name":"params","type":"tuple","internalType":"struct SwapParams","components":[{"name":"zeroForOne","type":"bool","internalType":"bool"},{"name":"amountSpecified","type":"int256","internalType":"int256"},{"name":"sqrtPriceLimitX96","type":"uint160","internalType":"uint160"}]},{"name":"hookData","type":"bytes","internalType":"bytes"}],"outputs":[{"name":"","type":"bytes4","internalType":"bytes4"},{"name":"","type":"int256","internalType":"BeforeSwapDelta"},{"name":"","type":"uint24","internalType":"uint24"}],"stateMutability":"nonpayable"},{"type":"function","name":"buyOrderIds","inputs":[{"name":"","type":"uint256","internalType":"uint256"}],"outputs":[{"name":"","type":"uint256","internalType":"uint256"}],"stateMutability":"view"},{"type":"function","name":"calculateCurvePrice","inputs":[],"outputs":[{"name":"price","type":"uint256","internalType":"uint256"}],"stateMutability":"view"},{"type":"function","name":"calculateEffectiveVolatility","inputs":[],"outputs":[{"name":"","type":"uint256","internalType":"uint256"}],"stateMutability":"view"},{"type":"function","name":"calculatePriceImpact","inputs":[{"name":"orderFlow","type":"int256","internalType":"int256"}],"outputs":[{"name":"impact","type":"int256","internalType":"int256"}],"stateMutability":"view"},{"type":"function","name":"calculatePriceImpactAdjustment","inputs":[{"name":"basePriceImpact","type":"uint256","internalType":"uint256"}],"outputs":[{"name":"adjustedImpact","type":"uint256","internalType":"uint256"}],"stateMutability":"view"},{"type":"function","name":"calculatePriceSensitivity","inputs":[],"outputs":[{"name":"sensitivity","type":"uint256","internalType":"uint256"}],"stateMutability":"view"},{"type":"function","name":"calculateSwapPrice","inputs":[{"name":"zeroForOne","type":"bool","internalType":"bool"},{"name":"amountIn","type":"uint256","internalType":"uint256"}],"outputs":[{"name":"amountOut","type":"uint256","internalType":"uint256"},{"name":"newSqrtPriceX96","type":"uint160","internalType":"uint160"}],"stateMutability":"view"},{"type":"function","name":"cancelOrder","inputs":[{"name":"orderId","type":"uint256","internalType":"uint256"}],"outputs":[],"stateMutability":"nonpayable"},{"type":"function","name":"checkMultipleFeedsConfigured","inputs":[{"name":"tokens","type":"address[]","internalType":"address[]"}],"outputs":[{"name":"allConfigured","type":"bool","internalType":"bool"}],"stateMutability":"view"},{"type":"function","name":"configurePriceFeed","inputs":[{"name":"token","type":"address","internalType":"address"},{"name":"feedAddress","type":"address","internalType":"address"},{"name":"heartbeat","type":"uint256","internalType":"uint256"}],"outputs":[],"stateMutability":"nonpayable"},{"type":"function","name":"currentTick","inputs":[],"outputs":[{"name":"","type":"int24","internalType":"int24"}],"stateMutability":"view"},{"type":"function","name":"curveModeState","inputs":[],"outputs":[{"name":"activeMode","type":"uint8","internalType":"enum CurveMode"},{"name":"oracleFeed","type":"address","internalType":"address"},{"name":"useOrderbook","type":"bool","internalType":"bool"},{"name":"usePool","type":"bool","internalType":"bool"},{"name":"lastModeChange","type":"uint256","internalType":"uint256"}],"stateMutability":"view"},{"type":"function","name":"deposit","inputs":[{"name":"token","type":"address","internalType":"address"},{"name":"amount","type":"uint256","internalType":"uint256"}],"outputs":[],"stateMutability":"nonpayable"},{"type":"function","name":"feeGrowthGlobal0","inputs":[],"outputs":[{"name":"","type":"uint256","internalType":"uint256"}],"stateMutability":"view"},{"type":"function","name":"feeGrowthGlobal1","inputs":[],"outputs":[{"name":"","type":"uint256","internalType":"uint256"}],"stateMutability":"view"},{"type":"function","name":"feeState","inputs":[],"outputs":[{"name":"currentFee","type":"uint24","internalType":"uint24"},{"name":"baseFee","type":"uint24","internalType":"uint24"},{"name":"maxFee","type":"uint24","internalType":"uint24"},{"name":"lastUpdateBlock","type":"uint32","internalType":"uint32"},{"name":"isPaused","type":"bool","internalType":"bool"}],"stateMutability":"view"},{"type":"function","name":"getAvailableBalance","inputs":[{"name":"user","type":"address","internalType":"address"},{"name":"token","type":"address","internalType":"address"}],"outputs":[{"name":"","type":"uint256","internalType":"uint256"}],"stateMutability":"view"},{"type":"function","name":"getBaseVolatility","inputs":[],"outputs":[{"name":"","type":"uint256","internalType":"uint256"}],"stateMutability":"view"},{"type":"function","name":"getBuyOrderCount","inputs":[],"outputs":[{"name":"","type":"uint256","internalType":"uint256"}],"stateMutability":"view"},{"type":"function","name":"getBuyOrderIds","inputs":[],"outputs":[{"name":"","type":"uint256[]","internalType":"uint256[]"}],"stateMutability":"view"},{"type":"function","name":"getComponentBreakdown","inputs":[],"outputs":[{"name":"volumeComponent","type":"uint256","internalType":"uint256"},{"name":"oiComponent","type":"uint256","internalType":"uint256"},{"name":"liquidationComponent","type":"uint256","internalType":"uint256"},{"name":"leverageComponent","type":"uint256","internalType":"uint256"}],"stateMutability":"view"},{"type":"function","name":"getComponentMetrics","inputs":[],"outputs":[{"name":"expectedComp","type":"uint256","internalType":"uint256"},{"name":"unexpectedComp","type":"uint256","internalType":"uint256"},{"name":"specRatio","type":"uint256","internalType":"uint256"},{"name":"totalVol","type":"uint256","internalType":"uint256"},{"name":"totalOI","type":"uint256","internalType":"uint256"},{"name":"totalLiq","type":"uint256","internalType":"uint256"},{"name":"avgLev","type":"uint256","internalType":"uint256"}],"stateMutability":"view"},{"type":"function","name":"getCumulativeFlow","inputs":[],"outputs":[{"name":"","type":"int256","internalType":"int256"}],"stateMutability":"view"},{"type":"function","name":"getCurrentPrice","inputs":[],"outputs":[{"name":"price","type":"uint256","internalType":"uint256"}],"stateMutability":"view"},{"type":"function","name":"getCurrentVolatility","inputs":[],"outputs":[{"name":"","type":"uint256","internalType":"uint256"}],"stateMutability":"view"},{"type":"function","name":"getCurveMode","inputs":[],"outputs":[{"name":"","type":"uint8","internalType":"enum CurveMode"}],"stateMutability":"view"},{"type":"function","name":"getCurveModeState","inputs":[],"outputs":[{"name":"","type":"tuple","internalType":"struct CurveModeState","components":[{"name":"activeMode","type":"uint8","internalType":"enum CurveMode"},{"name":"oracleFeed","type":"address","internalType":"address"},{"name":"useOrderbook","type":"bool","internalType":"bool"},{"name":"usePool","type":"bool","internalType":"bool"},{"name":"lastModeChange","type":"uint256","internalType":"uint256"}]}],"stateMutability":"view"},{"type":"function","name":"getCurveState","inputs":[],"outputs":[{"name":"k","type":"uint256","internalType":"uint256"},{"name":"q","type":"uint256","internalType":"uint256"},{"name":"price","type":"uint256","internalType":"uint256"},{"name":"sensitivity","type":"uint256","internalType":"uint256"}],"stateMutability":"view"},{"type":"function","name":"getEffectiveDepth","inputs":[],"outputs":[{"name":"","type":"uint256","internalType":"uint256"}],"stateMutability":"view"},{"type":"function","name":"getEffectiveVolatility","inputs":[],"outputs":[{"name":"","type":"uint256","internalType":"uint256"}],"stateMutability":"view"},{"type":"function","name":"getHedgerRatio","inputs":[],"outputs":[{"name":"","type":"uint256","internalType":"uint256"}],"stateMutability":"view"},{"type":"function","name":"getHistoricalLeverage","inputs":[],"outputs":[{"name":"","type":"uint256[]","internalType":"uint256[]"}],"stateMutability":"view"},{"type":"function","name":"getHistoricalLiquidations","inputs":[],"outputs":[{"name":"","type":"uint256[]","internalType":"uint256[]"}],"stateMutability":"view"},{"type":"function","name":"getHistoricalOI","inputs":[],"outputs":[{"name":"","type":"uint256[]","internalType":"uint256[]"}],"stateMutability":"view"},{"type":"function","name":"getHistoricalTrends","inputs":[],"outputs":[{"name":"volumeTrend","type":"uint256[]","internalType":"uint256[]"},{"name":"oiTrend","type":"uint256[]","internalType":"uint256[]"},{"name":"liqTrend","type":"uint256[]","internalType":"uint256[]"},{"name":"levTrend","type":"uint256[]","internalType":"uint256[]"}],"stateMutability":"view"},{"type":"function","name":"getHistoricalVolume","inputs":[],"outputs":[{"name":"","type":"uint256[]","internalType":"uint256[]"}],"stateMutability":"view"},{"type":"function","name":"getKyleState","inputs":[],"outputs":[{"name":"","type":"tuple","internalType":"struct KyleState","components":[{"name":"lambda","type":"uint256","internalType":"uint256"},{"name":"cumulativeFlow","type":"int256","internalType":"int256"},{"name":"lastUpdateBlock","type":"uint256","internalType":"uint256"},{"name":"baseDepth","type":"uint256","internalType":"uint256"},{"name":"effectiveDepth","type":"uint256","internalType":"uint256"}]}],"stateMutability":"view"},{"type":"function","name":"getLambda","inputs":[],"outputs":[{"name":"","type":"uint256","internalType":"uint256"}],"stateMutability":"view"},{"type":"function","name":"getLatestPrice","inputs":[{"name":"token","type":"address","internalType":"address"}],"outputs":[{"name":"price","type":"int256","internalType":"int256"},{"name":"updatedAt","type":"uint256","internalType":"uint256"}],"stateMutability":"view"},{"type":"function","name":"getLiquidityAtTick","inputs":[{"name":"tick","type":"int24","internalType":"int24"}],"outputs":[{"name":"","type":"uint128","internalType":"uint128"}],"stateMutability":"view"},{"type":"function","name":"getLockedBalance","inputs":[{"name":"user","type":"address","internalType":"address"},{"name":"token","type":"address","internalType":"address"}],"outputs":[{"name":"","type":"uint256","internalType":"uint256"}],"stateMutability":"view"},{"type":"function","name":"getLongOI","inputs":[],"outputs":[{"name":"","type":"uint256","internalType":"uint256"}],"stateMutability":"view"},{"type":"function","name":"getMaxPositionSize","inputs":[],"outputs":[{"name":"","type":"uint256","internalType":"uint256"}],"stateMutability":"view"},{"type":"function","name":"getOpenInterest","inputs":[],"outputs":[{"name":"longOI","type":"uint256","internalType":"uint256"},{"name":"shortOI","type":"uint256","internalType":"uint256"},{"name":"netOI","type":"int256","internalType":"int256"}],"stateMutability":"view"},{"type":"function","name":"getOrder","inputs":[{"name":"orderId","type":"uint256","internalType":"uint256"}],"outputs":[{"name":"","type":"tuple","internalType":"struct Order","components":[{"name":"orderId","type":"uint256","internalType":"uint256"},{"name":"trader","type":"address","internalType":"address"},{"name":"isBuy","type":"bool","internalType":"bool"},{"name":"price","type":"uint256","internalType":"uint256"},{"name":"quantity","type":"uint256","internalType":"uint256"},{"name":"timestamp","type":"uint256","internalType":"uint256"},{"name":"lockedAmount","type":"uint256","internalType":"uint256"}]}],"stateMutability":"view"},{"type":"function","name":"getOrderbookDepth","inputs":[],"outputs":[{"name":"buyDepth","type":"uint256","internalType":"uint256"},{"name":"sellDepth","type":"uint256","internalType":"uint256"}],"stateMutability":"view"},{"type":"function","name":"getPoolState","inputs":[],"outputs":[{"name":"_reserve0","type":"uint256","internalType":"uint256"},{"name":"_reserve1","type":"uint256","internalType":"uint256"},{"name":"_sqrtPriceX96","type":"uint160","internalType":"uint160"},{"name":"_currentTick","type":"int24","internalType":"int24"},{"name":"_totalLiquidity","type":"uint128","internalType":"uint128"}],"stateMutability":"view"},{"type":"function","name":"getPoolUtilization","inputs":[],"outputs":[{"name":"","type":"uint256","internalType":"uint256"}],"stateMutability":"view"},{"type":"function","name":"getPosition","inputs":[{"name":"provider","type":"address","internalType":"address"},{"name":"tickLower","type":"int24","internalType":"int24"},{"name":"tickUpper","type":"int24","internalType":"int24"}],"outputs":[{"name":"","type":"tuple","internalType":"struct LiquidityPosition","components":[{"name":"provider","type":"address","internalType":"address"},{"name":"liquidity","type":"uint128","internalType":"uint128"},{"name":"tickLower","type":"int24","internalType":"int24"},{"name":"tickUpper","type":"int24","internalType":"int24"},{"name":"feeGrowthInside0","type":"uint256","internalType":"uint256"},{"name":"feeGrowthInside1","type":"uint256","internalType":"uint256"}]}],"stateMutability":"view"},{"type":"function","name":"getPricingMultiplier","inputs":[],"outputs":[{"name":"multiplier","type":"uint256","internalType":"uint256"}],"stateMutability":"view"},{"type":"function","name":"getReserves","inputs":[],"outputs":[{"name":"_reserve0","type":"uint256","internalType":"uint256"},{"name":"_reserve1","type":"uint256","internalType":"uint256"}],"stateMutability":"view"},{"type":"function","name":"getSellOrderCount","inputs":[],"outputs":[{"name":"","type":"uint256","internalType":"uint256"}],"stateMutability":"view"},{"type":"function","name":"getSellOrderIds","inputs":[],"outputs":[{"name":"","type":"uint256[]","internalType":"uint256[]"}],"stateMutability":"view"},{"type":"function","name":"getShortOI","inputs":[],"outputs":[{"name":"","type":"uint256","internalType":"uint256"}],"stateMutability":"view"},{"type":"function","name":"getState","inputs":[],"outputs":[{"name":"","type":"tuple","internalType":"struct ComponentIndicatorState","components":[{"name":"expectedComponent","type":"uint256","internalType":"uint256"},{"name":"unexpectedComponent","type":"uint256","internalType":"uint256"},{"name":"speculativeRatio","type":"uint256","internalType":"uint256"},{"name":"totalVolume","type":"uint256","internalType":"uint256"},{"name":"totalOpenInterest","type":"uint256","internalType":"uint256"},{"name":"totalLiquidations","type":"uint256","internalType":"uint256"},{"name":"averageLeverage","type":"uint256","internalType":"uint256"},{"name":"lastUpdateBlock","type":"uint256","internalType":"uint256"}]}],"stateMutability":"view"},{"type":"function","name":"getSystemState","inputs":[],"outputs":[{"name":"_kyleState","type":"tuple","internalType":"struct KyleState","components":[{"name":"lambda","type":"uint256","internalType":"uint256"},{"name":"cumulativeFlow","type":"int256","internalType":"int256"},{"name":"lastUpdateBlock","type":"uint256","internalType":"uint256"},{"name":"baseDepth","type":"uint256","internalType":"uint256"},{"name":"effectiveDepth","type":"uint256","internalType":"uint256"}]},{"name":"_volatilityState","type":"tuple","internalType":"struct VolatilityState","components":[{"name":"baseVolatility","type":"uint256","internalType":"uint256"},{"name":"longOI","type":"uint256","internalType":"uint256"},{"name":"shortOI","type":"uint256","internalType":"uint256"},{"name":"effectiveVolatility","type":"uint256","internalType":"uint256"},{"name":"lastUpdateBlock","type":"uint256","internalType":"uint256"}]},{"name":"_feeState","type":"tuple","internalType":"struct PackedFeeState","components":[{"name":"currentFee","type":"uint24","internalType":"uint24"},{"name":"baseFee","type":"uint24","internalType":"uint24"},{"name":"maxFee","type":"uint24","internalType":"uint24"},{"name":"lastUpdateBlock","type":"uint32","internalType":"uint32"},{"name":"isPaused","type":"bool","internalType":"bool"}]},{"name":"_componentState","type":"tuple","internalType":"struct ComponentIndicatorState","components":[{"name":"expectedComponent","type":"uint256","internalType":"uint256"},{"name":"unexpectedComponent","type":"uint256","internalType":"uint256"},{"name":"speculativeRatio","type":"uint256","internalType":"uint256"},{"name":"totalVolume","type":"uint256","internalType":"uint256"},{"name":"totalOpenInterest","type":"uint256","internalType":"uint256"},{"name":"totalLiquidations","type":"uint256","internalType":"uint256"},{"name":"averageLeverage","type":"uint256","internalType":"uint256"},{"name":"lastUpdateBlock","type":"uint256","internalType":"uint256"}]}],"stateMutability":"view"},{"type":"function","name":"getTWAP","inputs":[],"outputs":[{"name":"","type":"uint256","internalType":"uint256"}],"stateMutability":"view"},{"type":"function","name":"getTWAPState","inputs":[],"outputs":[{"name":"","type":"tuple","internalType":"struct TWAPState","components":[{"name":"priceHistory","type":"uint256[10]","internalType":"uint256[10]"},{"name":"currentIndex","type":"uint256","internalType":"uint256"},{"name":"sum","type":"uint256","internalType":"uint256"}]}],"stateMutability":"view"},{"type":"function","name":"getTotalBalance","inputs":[{"name":"user","type":"address","internalType":"address"},{"name":"token","type":"address","internalType":"address"}],"outputs":[{"name":"","type":"uint256","internalType":"uint256"}],"stateMutability":"view"},{"type":"function","name":"getUnclaimedFees","inputs":[{"name":"provider","type":"address","internalType":"address"},{"name":"tickLower","type":"int24","internalType":"int24"},{"name":"tickUpper","type":"int24","internalType":"int24"}],"outputs":[{"name":"fees0","type":"uint256","internalType":"uint256"},{"name":"fees1","type":"uint256","internalType":"uint256"}],"stateMutability":"view"},{"type":"function","name":"getUserBalance","inputs":[{"name":"user","type":"address","internalType":"address"}],"outputs":[{"name":"","type":"tuple","internalType":"struct UserBalance","components":[{"name":"token0Available","type":"uint256","internalType":"uint256"},{"name":"token1Available","type":"uint256","internalType":"uint256"},{"name":"token0Locked","type":"uint256","internalType":"uint256"},{"name":"token1Locked","type":"uint256","internalType":"uint256"}]}],"stateMutability":"view"},{"type":"function","name":"getUserPositionSize","inputs":[{"name":"user","type":"address","internalType":"address"}],"outputs":[{"name":"","type":"uint256","internalType":"uint256"}],"stateMutability":"view"},{"type":"function","name":"getVAMMCurveState","inputs":[],"outputs":[{"name":"k","type":"uint256","internalType":"uint256"},{"name":"q","type":"uint256","internalType":"uint256"},{"name":"price","type":"uint256","internalType":"uint256"},{"name":"sensitivity","type":"uint256","internalType":"uint256"}],"stateMutability":"view"},{"type":"function","name":"getVolatilityState","inputs":[],"outputs":[{"name":"","type":"tuple","internalType":"struct VolatilityState","components":[{"name":"baseVolatility","type":"uint256","internalType":"uint256"},{"name":"longOI","type":"uint256","internalType":"uint256"},{"name":"shortOI","type":"uint256","internalType":"uint256"},{"name":"effectiveVolatility","type":"uint256","internalType":"uint256"},{"name":"lastUpdateBlock","type":"uint256","internalType":"uint256"}]}],"stateMutability":"view"},{"type":"function","name":"grantAdminRole","inputs":[{"name":"account","type":"address","internalType":"address"}],"outputs":[],"stateMutability":"nonpayable"},{"type":"function","name":"hasRole","inputs":[{"name":"","type":"address","internalType":"address"},{"name":"","type":"bytes32","internalType":"bytes32"}],"outputs":[{"name":"","type":"bool","internalType":"bool"}],"stateMutability":"view"},{"type":"function","name":"historicalLeverage","inputs":[{"name":"","type":"uint256","internalType":"uint256"}],"outputs":[{"name":"","type":"uint256","internalType":"uint256"}],"stateMutability":"view"},{"type":"function","name":"historicalLiquidations","inputs":[{"name":"","type":"uint256","internalType":"uint256"}],"outputs":[{"name":"","type":"uint256","internalType":"uint256"}],"stateMutability":"view"},{"type":"function","name":"historicalOI","inputs":[{"name":"","type":"uint256","internalType":"uint256"}],"outputs":[{"name":"","type":"uint256","internalType":"uint256"}],"stateMutability":"view"},{"type":"function","name":"historicalVolume","inputs":[{"name":"","type":"uint256","internalType":"uint256"}],"outputs":[{"name":"","type":"uint256","internalType":"uint256"}],"stateMutability":"view"},{"type":"function","name":"initializeVAMMCurve","inputs":[{"name":"initialPrice","type":"uint256","internalType":"uint256"},{"name":"initialQuantity","type":"uint256","internalType":"uint256"}],"outputs":[],"stateMutability":"nonpayable"},{"type":"function","name":"isPaused","inputs":[],"outputs":[{"name":"","type":"bool","internalType":"bool"}],"stateMutability":"view"},{"type":"function","name":"isPriceStale","inputs":[{"name":"token","type":"address","internalType":"address"}],"outputs":[{"name":"isStale","type":"bool","internalType":"bool"}],"stateMutability":"view"},{"type":"function","name":"kyleState","inputs":[],"outputs":[{"name":"lambda","type":"uint256","internalType":"uint256"},{"name":"cumulativeFlow","type":"int256","internalType":"int256"},{"name":"lastUpdateBlock","type":"uint256","internalType":"uint256"},{"name":"baseDepth","type":"uint256","internalType":"uint256"},{"name":"effectiveDepth","type":"uint256","internalType":"uint256"}],"stateMutability":"view"},{"type":"function","name":"lastCurvePrice","inputs":[],"outputs":[{"name":"","type":"uint256","internalType":"uint256"}],"stateMutability":"view"},{"type":"function","name":"lastCurveUpdateBlock","inputs":[],"outputs":[{"name":"","type":"uint256","internalType":"uint256"}],"stateMutability":"view"},{"type":"function","name":"maxPositionSizePerUser","inputs":[],"outputs":[{"name":"","type":"uint256","internalType":"uint256"}],"stateMutability":"view"},{"type":"function","name":"maxVolatility","inputs":[],"outputs":[{"name":"","type":"uint256","internalType":"uint256"}],"stateMutability":"view"},{"type":"function","name":"nextOrderId","inputs":[],"outputs":[{"name":"","type":"uint256","internalType":"uint256"}],"stateMutability":"view"},{"type":"function","name":"oraclePaused","inputs":[],"outputs":[{"name":"","type":"bool","internalType":"bool"}],"stateMutability":"view"},{"type":"function","name":"orders","inputs":[{"name":"","type":"uint256","internalType":"uint256"}],"outputs":[{"name":"orderId","type":"uint256","internalType":"uint256"},{"name":"trader","type":"address","internalType":"address"},{"name":"isBuy","type":"bool","internalType":"bool"},{"name":"price","type":"uint256","internalType":"uint256"},{"name":"quantity","type":"uint256","internalType":"uint256"},{"name":"timestamp","type":"uint256","internalType":"uint256"},{"name":"lockedAmount","type":"uint256","internalType":"uint256"}],"stateMutability":"view"},{"type":"function","name":"pauseTrading","inputs":[],"outputs":[],"stateMutability":"nonpayable"},{"type":"function","name":"placeOrder","inputs":[{"name":"isBuy","type":"bool","internalType":"bool"},{"name":"price","type":"uint256","internalType":"uint256"},{"name":"quantity","type":"uint256","internalType":"uint256"}],"outputs":[{"name":"orderId","type":"uint256","internalType":"uint256"}],"stateMutability":"nonpayable"},{"type":"function","name":"poolConstant","inputs":[],"outputs":[{"name":"","type":"uint256","internalType":"uint256"}],"stateMutability":"view"},{"type":"function","name":"poolManager","inputs":[],"outputs":[{"name":"","type":"address","internalType":"contract IPoolManager"}],"stateMutability":"view"},{"type":"function","name":"positions","inputs":[{"name":"","type":"bytes32","internalType":"bytes32"}],"outputs":[{"name":"provider","type":"address","internalType":"address"},{"name":"liquidity","type":"uint128","internalType":"uint128"},{"name":"tickLower","type":"int24","internalType":"int24"},{"name":"tickUpper","type":"int24","internalType":"int24"},{"name":"feeGrowthInside0","type":"uint256","internalType":"uint256"},{"name":"feeGrowthInside1","type":"uint256","internalType":"uint256"}],"stateMutability":"view"},{"type":"function","name":"priceFeeds","inputs":[{"name":"","type":"address","internalType":"address"}],"outputs":[{"name":"feedAddress","type":"address","internalType":"address"},{"name":"heartbeat","type":"uint256","internalType":"uint256"},{"name":"lastUpdate","type":"uint256","internalType":"uint256"},{"name":"lastPrice","type":"int256","internalType":"int256"}],"stateMutability":"view"},{"type":"function","name":"removeLiquidity","inputs":[{"name":"tickLower","type":"int24","internalType":"int24"},{"name":"tickUpper","type":"int24","internalType":"int24"},{"name":"liquidityToRemove","type":"uint128","internalType":"uint128"}],"outputs":[{"name":"amount0","type":"uint256","internalType":"uint256"},{"name":"amount1","type":"uint256","internalType":"uint256"}],"stateMutability":"nonpayable"},{"type":"function","name":"reserve0","inputs":[],"outputs":[{"name":"","type":"uint256","internalType":"uint256"}],"stateMutability":"view"},{"type":"function","name":"reserve1","inputs":[],"outputs":[{"name":"","type":"uint256","internalType":"uint256"}],"stateMutability":"view"},{"type":"function","name":"revokeAdminRole","inputs":[{"name":"account","type":"address","internalType":"address"}],"outputs":[],"stateMutability":"nonpayable"},{"type":"function","name":"seasonalBaseline","inputs":[],"outputs":[{"name":"","type":"uint256","internalType":"uint256"}],"stateMutability":"view"},{"type":"function","name":"sellOrderIds","inputs":[{"name":"","type":"uint256","internalType":"uint256"}],"outputs":[{"name":"","type":"uint256","internalType":"uint256"}],"stateMutability":"view"},{"type":"function","name":"setCurveMode","inputs":[{"name":"mode","type":"uint8","internalType":"enum CurveMode"},{"name":"oracleFeed","type":"address","internalType":"address"}],"outputs":[],"stateMutability":"nonpayable"},{"type":"function","name":"setMaxPositionSize","inputs":[{"name":"newLimit","type":"uint256","internalType":"uint256"}],"outputs":[],"stateMutability":"nonpayable"},{"type":"function","name":"shouldPrioritizeDeleveraging","inputs":[],"outputs":[{"name":"","type":"bool","internalType":"bool"}],"stateMutability":"view"},{"type":"function","name":"simulateTrade","inputs":[{"name":"size","type":"uint256","internalType":"uint256"},{"name":"isLong","type":"bool","internalType":"bool"}],"outputs":[{"name":"expectedPrice","type":"uint256","internalType":"uint256"},{"name":"expectedImpact","type":"uint256","internalType":"uint256"}],"stateMutability":"view"},{"type":"function","name":"sqrtPriceX96","inputs":[],"outputs":[{"name":"","type":"uint160","internalType":"uint160"}],"stateMutability":"view"},{"type":"function","name":"state","inputs":[],"outputs":[{"name":"expectedComponent","type":"uint256","internalType":"uint256"},{"name":"unexpectedComponent","type":"uint256","internalType":"uint256"},{"name":"speculativeRatio","type":"uint256","internalType":"uint256"},{"name":"totalVolume","type":"uint256","internalType":"uint256"},{"name":"totalOpenInterest","type":"uint256","internalType":"uint256"},{"name":"totalLiquidations","type":"uint256","internalType":"uint256"},{"name":"averageLeverage","type":"uint256","internalType":"uint256"},{"name":"lastUpdateBlock","type":"uint256","internalType":"uint256"}],"stateMutability":"view"},{"type":"function","name":"tickLiquidity","inputs":[{"name":"","type":"int24","internalType":"int24"}],"outputs":[{"name":"","type":"uint128","internalType":"uint128"}],"stateMutability":"view"},{"type":"function","name":"totalLiquidity","inputs":[],"outputs":[{"name":"","type":"uint128","internalType":"uint128"}],"stateMutability":"view"},{"type":"function","name":"totalLongPositions","inputs":[],"outputs":[{"name":"","type":"uint256","internalType":"uint256"}],"stateMutability":"view"},{"type":"function","name":"totalShortPositions","inputs":[],"outputs":[{"name":"","type":"uint256","internalType":"uint256"}],"stateMutability":"view"},{"type":"function","name":"trendComponent","inputs":[],"outputs":[{"name":"","type":"uint256","internalType":"uint256"}],"stateMutability":"view"},{"type":"function","name":"unpauseTrading","inputs":[],"outputs":[],"stateMutability":"nonpayable"},{"type":"function","name":"updateFeeParameters","inputs":[{"name":"baseFee","type":"uint24","internalType":"uint24"},{"name":"maxFee","type":"uint24","internalType":"uint24"}],"outputs":[],"stateMutability":"nonpayable"},{"type":"function","name":"updateOraclePrice","inputs":[{"name":"token","type":"address","internalType":"address"}],"outputs":[{"name":"price","type":"int256","internalType":"int256"},{"name":"updatedAt","type":"uint256","internalType":"uint256"}],"stateMutability":"nonpayable"},{"type":"function","name":"updateVolatilityCoefficients","inputs":[{"name":"longCoeff","type":"int256","internalType":"int256"},{"name":"shortCoeff","type":"int256","internalType":"int256"}],"outputs":[],"stateMutability":"nonpayable"},{"type":"function","name":"userPositionSize","inputs":[{"name":"","type":"address","internalType":"address"}],"outputs":[{"name":"","type":"uint256","internalType":"uint256"}],"stateMutability":"view"},{"type":"function","name":"vBTCQuantity","inputs":[],"outputs":[{"name":"","type":"uint256","internalType":"uint256"}],"stateMutability":"view"},{"type":"function","name":"vUSDCReserve","inputs":[],"outputs":[{"name":"","type":"uint256","internalType":"uint256"}],"stateMutability":"view"},{"type":"function","name":"validateDeleveragingPrice","inputs":[{"name":"token","type":"address","internalType":"address"},{"name":"deleveragePrice","type":"uint256","internalType":"uint256"}],"outputs":[{"name":"isValid","type":"bool","internalType":"bool"}],"stateMutability":"nonpayable"},{"type":"function","name":"validatePrice","inputs":[{"name":"token","type":"address","internalType":"address"},{"name":"internalPrice","type":"uint256","internalType":"uint256"}],"outputs":[{"name":"isValid","type":"bool","internalType":"bool"},{"name":"deviation","type":"uint256","internalType":"uint256"}],"stateMutability":"nonpayable"},{"type":"function","name":"volatilityState","inputs":[],"outputs":[{"name":"baseVolatility","type":"uint256","internalType":"uint256"},{"name":"longOI","type":"uint256","internalType":"uint256"},{"name":"shortOI","type":"uint256","internalType":"uint256"},{"name":"effectiveVolatility","type":"uint256","internalType":"uint256"},{"name":"lastUpdateBlock","type":"uint256","internalType":"uint256"}],"stateMutability":"view"},{"type":"function","name":"withdraw","inputs":[{"name":"token","type":"address","internalType":"address"},{"name":"amount","type":"uint256","internalType":"uint256"}],"outputs":[],"stateMutability":"nonpayable"},{"type":"event","name":"AdminActionExecuted","inputs":[{"name":"admin","type":"address","indexed":true,"internalType":"address"},{"name":"action","type":"string","indexed":false,"internalType":"string"},{"name":"params","type":"bytes","indexed":false,"internalType":"bytes"},{"name":"timestamp","type":"uint256","indexed":false,"internalType":"uint256"}],"anonymous":false},{"type":"event","name":"ComponentIndicatorUpdated","inputs":[{"name":"expectedComponent","type":"uint256","indexed":false,"internalType":"uint256"},{"name":"unexpectedComponent","type":"uint256","indexed":false,"internalType":"uint256"},{"name":"speculativeRatio","type":"uint256","indexed":false,"internalType":"uint256"},{"name":"totalVolume","type":"uint256","indexed":false,"internalType":"uint256"},{"name":"timestamp","type":"uint256","indexed":false,"internalType":"uint256"}],"anonymous":false},{"type":"event","name":"CurveInitialized","inputs":[{"name":"initialK","type":"uint256","indexed":false,"internalType":"uint256"},{"name":"initialQ","type":"uint256","indexed":false,"internalType":"uint256"},{"name":"initialPrice","type":"uint256","indexed":false,"internalType":"uint256"}],"anonymous":false},{"type":"event","name":"CurvePriceUpdated","inputs":[{"name":"newPrice","type":"uint256","indexed":false,"internalType":"uint256"},{"name":"newQ","type":"uint256","indexed":false,"internalType":"uint256"},{"name":"priceImpact","type":"uint256","indexed":false,"internalType":"uint256"},{"name":"isLong","type":"bool","indexed":false,"internalType":"bool"}],"anonymous":false},{"type":"event","name":"LiquidityModified","inputs":[{"name":"provider","type":"address","indexed":true,"internalType":"address"},{"name":"liquidityDelta","type":"int128","indexed":false,"internalType":"int128"},{"name":"tickLower","type":"int24","indexed":false,"internalType":"int24"},{"name":"tickUpper","type":"int24","indexed":false,"internalType":"int24"},{"name":"timestamp","type":"uint256","indexed":false,"internalType":"uint256"}],"anonymous":false},{"type":"event","name":"OraclePauseStateChanged","inputs":[{"name":"paused","type":"bool","indexed":false,"internalType":"bool"},{"name":"reason","type":"string","indexed":false,"internalType":"string"}],"anonymous":false},{"type":"event","name":"OrderCancelled","inputs":[{"name":"orderId","type":"uint256","indexed":true,"internalType":"uint256"},{"name":"trader","type":"address","indexed":true,"internalType":"address"},{"name":"refundAmount","type":"uint256","indexed":false,"internalType":"uint256"},{"name":"timestamp","type":"uint256","indexed":false,"internalType":"uint256"}],"anonymous":false},{"type":"event","name":"OrderMatched","inputs":[{"name":"buyOrderId","type":"uint256","indexed":true,"internalType":"uint256"},{"name":"sellOrderId","type":"uint256","indexed":true,"internalType":"uint256"},{"name":"price","type":"uint256","indexed":false,"internalType":"uint256"},{"name":"quantity","type":"uint256","indexed":false,"internalType":"uint256"},{"name":"timestamp","type":"uint256","indexed":false,"internalType":"uint256"}],"anonymous":false},{"type":"event","name":"OrderPlaced","inputs":[{"name":"orderId","type":"uint256","indexed":true,"internalType":"uint256"},{"name":"trader","type":"address","indexed":true,"internalType":"address"},{"name":"isBuy","type":"bool","indexed":false,"internalType":"bool"},{"name":"price","type":"uint256","indexed":false,"internalType":"uint256"},{"name":"quantity","type":"uint256","indexed":false,"internalType":"uint256"},{"name":"timestamp","type":"uint256","indexed":false,"internalType":"uint256"}],"anonymous":false},{"type":"event","name":"PositionClosed","inputs":[{"name":"trader","type":"address","indexed":true,"internalType":"address"},{"name":"isLong","type":"bool","indexed":false,"internalType":"bool"},{"name":"size","type":"uint256","indexed":false,"internalType":"uint256"},{"name":"exitPrice","type":"uint256","indexed":false,"internalType":"uint256"}],"anonymous":false},{"type":"event","name":"PositionOpened","inputs":[{"name":"trader","type":"address","indexed":true,"internalType":"address"},{"name":"isLong","type":"bool","indexed":false,"internalType":"bool"},{"name":"size","type":"uint256","indexed":false,"internalType":"uint256"},{"name":"entryPrice","type":"uint256","indexed":false,"internalType":"uint256"}],"anonymous":false},{"type":"event","name":"PriceDeviationAlert","inputs":[{"name":"token","type":"address","indexed":true,"internalType":"address"},{"name":"internalPrice","type":"uint256","indexed":false,"internalType":"uint256"},{"name":"oraclePrice","type":"uint256","indexed":false,"internalType":"uint256"},{"name":"deviation","type":"uint256","indexed":false,"internalType":"uint256"},{"name":"timestamp","type":"uint256","indexed":false,"internalType":"uint256"}],"anonymous":false},{"type":"event","name":"PriceFeedConfigured","inputs":[{"name":"token","type":"address","indexed":true,"internalType":"address"},{"name":"feedAddress","type":"address","indexed":true,"internalType":"address"},{"name":"heartbeat","type":"uint256","indexed":false,"internalType":"uint256"}],"anonymous":false},{"type":"event","name":"SwapExecuted","inputs":[{"name":"trader","type":"address","indexed":true,"internalType":"address"},{"name":"zeroForOne","type":"bool","indexed":false,"internalType":"bool"},{"name":"amountIn","type":"uint256","indexed":false,"internalType":"uint256"},{"name":"amountOut","type":"uint256","indexed":false,"internalType":"uint256"},{"name":"orderbookVolume","type":"uint256","indexed":false,"internalType":"uint256"},{"name":"ammVolume","type":"uint256","indexed":false,"internalType":"uint256"},{"name":"timestamp","type":"uint256","indexed":false,"internalType":"uint256"}],"anonymous":false},{"type":"event","name":"VolatilityUpdated","inputs":[{"name":"newVolatility","type":"uint256","indexed":false,"internalType":"uint256"},{"name":"longOI","type":"uint256","indexed":false,"internalType":"uint256"},{"name":"shortOI","type":"uint256","indexed":false,"internalType":"uint256"},{"name":"effectiveDepth","type":"uint256","indexed":false,"internalType":"uint256"},{"name":"timestamp","type":"uint256","indexed":false,"internalType":"uint256"}],"anonymous":false},{"type":"error","name":"AddressEmptyCode","inputs":[{"name":"target","type":"address","internalType":"address"}]},{"type":"error","name":"AddressInsufficientBalance","inputs":[{"name":"account","type":"address","internalType":"address"}]},{"type":"error","name":"ExcessiveVolatility","inputs":[{"name":"current","type":"uint256","internalType":"uint256"},{"name":"maximum","type":"uint256","internalType":"uint256"}]},{"type":"error","name":"FailedInnerCall","inputs":[]},{"type":"error","name":"HookNotImplemented","inputs":[]},{"type":"error","name":"InsufficientBalance","inputs":[{"name":"user","type":"address","internalType":"address"},{"name":"required","type":"uint256","internalType":"uint256"},{"name":"available","type":"uint256","internalType":"uint256"}]},{"type":"error","name":"InvalidInput","inputs":[{"name":"parameter","type":"string","internalType":"string"}]},{"type":"error","name":"OrderNotFound","inputs":[{"name":"orderId","type":"uint256","internalType":"uint256"}]},{"type":"error","name":"PositionSizeExceeded","inputs":[{"name":"user","type":"address","internalType":"address"},{"name":"currentSize","type":"uint256","internalType":"uint256"},{"name":"attemptedSize","type":"uint256","internalType":"uint256"},{"name":"limit","type":"uint256","internalType":"uint256"}]},{"type":"error","name":"PriceOutOfBounds","inputs":[{"name":"price","type":"uint256","internalType":"uint256"},{"name":"minPrice","type":"uint256","internalType":"uint256"},{"name":"maxPrice","type":"uint256","internalType":"uint256"}]},{"type":"error","name":"SafeERC20FailedOperation","inputs":[{"name":"token","type":"address","internalType":"address"}]},{"type":"error","name":"StaleOracle","inputs":[{"name":"feed","type":"address","internalType":"address"},{"name":"lastUpdate","type":"uint256","internalType":"uint256"}]},{"type":"error","name":"TradingPaused","inputs":[]},{"type":"error","name":"Unauthorized","inputs":[{"name":"caller","type":"address","internalType":"address"}]},{"type":"error","name":"UnauthorizedCancellation","inputs":[{"name":"caller","type":"address","internalType":"address"},{"name":"orderId","type":"uint256","internalType":"uint256"}]},{"type":"error","name":"ZeroAmount","inputs":[]}],"bytecode":{"object":"0x60e0346200052257601f6200779738819003918201601f191683019291906001600160401b0384118385101762000526578160c09284926040968752833981010312620005225762000051816200055a565b91602091620000628382016200055a565b92620000708383016200055a565b9360608301519260018060a01b0390818516809503620005225760809660a088830151920151600a830291831595848404600a14871715620004675785811615801562000517575b620004e2578a5260a0526001948560055569d3c21bcecceda10000006007558115620004b1576200047b57670de0b6b3a76400008302670de0b6b3a763ffff19848204016200046757819004818a620001106200053a565b8381525f8a820152438c82015282606082015201526008555f60095543600a5580600b55600c555f600d5580156200043257808211620003ed57620001546200053a565b8281525f868201525f88820152826060820152884391015281600e555f600f555f60105581601155436012556013556014558315620003a8577601010000000000000000000000000000000000000000019495966019546c01000000000000000000000000861080155f146200039157505f955b60018060b81b0319809760a01b62ffffff60a01b16921617176019555f88620001f06200053a565b6101f4808252878201526127108a82015282606082015201526727100001f40001f460018060701b0319601d541617601d55436025555f6036555f60375569010f0cf064dd592000006038555f603955335f52603d8452865f207fa49807205ce4d355092ef5a8a18f56e8913cf4a201fbe287825b095693c217755f528452865f208360ff198254161790551660c0525f6200028b6200053a565b928284528301528085830152606082015284439101526046541617604655436047555161722791826200057083395181818161081001528181610bea015281816110bd015281816111ca01528181611864015281816133b2015281816137ca01528181613a64015281816154b50152818161578a01528181615aaa01528181615d8d015281816165220152818161663f015261696d015260a0518181816107e001528181610d020152818161108d0152818161126d015281816117020152818161374e01528181613b36015281816154f1015281816157b901528181615adc01528181615dc10152818161659b0152818161668b01526169dc015260c051816112a80152f35b15620003a0575f1995620001c8565b8395620001c8565b845163d647364f60e01b815260048101849052601360248201527f696e697469616c537172745072696365583936000000000000000000000000006044820152606490fd5b865163d647364f60e01b815260048101869052601e60248201527f62617365566f6c6174696c697479203e206d6178566f6c6174696c69747900006044820152606490fd5b865163d647364f60e01b815260048101869052600d60248201526c6d6178566f6c6174696c69747960981b6044820152606490fd5b634e487b7160e01b5f52601160045260245ffd5b875163d647364f60e01b815260048101879052600e60248201526d62617365566f6c6174696c69747960901b6044820152606490fd5b885163d647364f60e01b81526004810188905260096024820152680c4c2e6ca88cae0e8d60bb1b6044820152606490fd5b895163d647364f60e01b815260048101899052600d60248201526c746f6b656e206164647265737360981b6044820152606490fd5b5085821615620000b8565b5f80fd5b634e487b7160e01b5f52604160045260245ffd5b6040519060a082016001600160401b038111838210176200052657604052565b51906001600160a01b0382168203620005225756fe604060808152600480361015610013575f80fd5b60e05f35811c908162dc3f63146149815781630198b5791461496357816302226cbd1461486e57816305ecd0031461484d578163063d90dd1461481b578163065e5360146147f75781630902f1ac146147d4578163097d9c25146147b65781631031e36e146146f2578163103905bc146145ed578163116c755b14611c6157816315770f92146145c557816316345f18146145a357816317fdb62f1461457e5781631865c57d1461454c5781631971f9d91461449457816319b9d4e01461446e5781631c2aef86146144505781631e1f5d45146143fa5781631ff2d4e9146143de578163217ac2371461438657816321d0ee7014614337578163231859471461426957816323536f841461423757816324aaf97f1461421a578163259982e51461418d57816326a9c121146140f557816328fa777f1461402e57816329ce16bb146140105781632a58b33014613ff25781632c7e0fd014613fbf5781632d44dc2414613fa157816332ef4e8714613f67578163388e60ea14613e895781633a14197614613cfd578163443cb4bc14613cdf578163456068d214613c075781634773489214613b6d57816347e7ef2414613a0b57816348913d6b1461399357816348d9d9bb146139535781634a83c3b7146139375781634bdb1a85146138dd5781634e26cf7b146138ba5781634f30be231461389c578163514ea4bf1461382a578163514fcac71461367f57816351bd551f1461365257816351e73d2e1461362657816355aa2f0214612c3957816356df6a4714613609578163575e24b414612dd05781635a76f25e14612db2578163652dd22e14612af85781636c2bbe7e14612d715781636fa5085314612d535781636fe7e6eb14612d06578163710b70d314612ce85781637433eaa314612c7057816374efd30714612c3957816375b238fc14612c125781637706ba5214612bef5781637797a17014612bd057816377cf25cd14612b465781637c0caf6614612b1657816380a48b7614612af857816381360e7a14612add57816381490bff14612aab578163815c66d914612a8d578163868bf9e8146128835781638b3e4ec5146128545781638be675c0146126f25781638db791d2146126ca5781638e77a985146126ad5781639209e9ba146125b557816394f3fe8e146125935781639a19c7b01461242b5781639da120961461240d5781639dcb511a146123b15781639efc1886146123895781639f063efc14612348578163a1e8406d1461232c578163a85c38ef146122ba578163ab13a8a61461226c578163ac4ab3fb14612227578163b0bb1c5a14612205578163b187bd26146121e2578163b2838a73146121b5578163b47b2fb114611f68578163b4fa438214611ddf578163b569628c14611dbd578163b6a8b0fa1461115f578163b7e3e44014611aad578163b849116414611da2578163bb24882e14611d4a578163bb32887314611d1a578163bb6ef3d914611cfc578163bf7d653b14611cde578163c19d93fb14611c84578163c1ea019e14611c66578163c417d1f014611c61578163c622228314611c43578163c634b78e14611b13578163c736887e14611ae6578163c74bd93214611aad578163c7aacfe414611a6e578163c924ebe714611a50578163ca65e4be146119aa578163ca8b4f7a1461164c578163cbc377511461161a578163cbc535f7146115fe578163cd5214af146115e0578163ce8c4c1d146115c4578163cf78756b146115a6578163d05462511461156e578163d09ef24114611466578163d9ea5b03146112f5578163dc2e1134146112d7578163dc4c90d314611294578163dc98354e1461118257508063df6b28fe14611164578063e1b4af691461115f578063e3f9aa4714610ead578063e586f95514610df8578063e975fb2f14610dda578063eb91d37e14610da5578063ec5bbf7d14610d78578063ecae461b14610d5a578063eced552614610d38578063f3fef3a314610b8f578063f86e9e8a14610b35578063fd45a433146109895763fd87f9aa146105d4575f80fd5b34610985576080366003190112610985576105ed614db4565b916105f6614d94565b90604435606435925f8051602061719283398151915295610618875c15614f4a565b6001875d60ff603e5416610975576106308282616bde565b61063983616241565b61064285616241565b8160020b948160020b9386851215610944578015808061093c575b61092c5780610924575b6109145761067483616f44565b9161067e85616f44565b6019549091906001600160a01b039081169085811682116108c2575050506106a592616ff2565b6001600160801b038181169790969088156108b457506107c783835f80516020617112833981519152936106df8860609e985f9a98616c86565b9b90996106ed8886336160db565b8a5260156020528b8a20926001840193845484811615610862575b50508354938361071a87828816616228565b166001600160801b0319958616179055818b5260166020528c8b208054858561074589828516616228565b169116179055808b5260166020528c8b208054858561076689828516616228565b16911617905560195460a01c60020b918212159182610858575b505061083a575b505050610796876017546152d7565b6017556107a5896018546152d7565b6018558661080a575b886107da575b8751918291339542918d600f0b856161ca565b0390a25d81519384526020840152820152f35b610805897f000000000000000000000000000000000000000000000000000000000000000033616949565b6107b4565b610835877f000000000000000000000000000000000000000000000000000000000000000033616949565b6107ae565b610849601a5493828516616228565b16911617601a555f8080610787565b1290505f80610780565b81546001600160a01b0319163317825565ffffffffffff60801b1916608088901b62ffffff60801b161762ffffff60981b60988c901b16178555601b546002820155601c546003909101555f80610708565b8651631f2a200560e01b8152fd5b91939091831682106108de5750506108d992617050565b6106a5565b6108ed906108f3949383616ff2565b93617050565b6001600160801b03818116908316101561090d57506106a5565b90506106a5565b8551631f2a200560e01b81528890fd5b508115610667565b8651631f2a200560e01b81528990fd5b50821561065d565b855163d647364f60e01b81526020818a0152600a6024820152697469636b2072616e676560b01b6044820152606490fd5b835163015c3a5360e11b81528690fd5b5f80fd5b50346109855781600319360112610985576109a2614a90565b6001600160a01b038181169160243591906109be8415156157e5565b8215610af9579060206109d18693615887565b5091855f52603a8252875f20541687519384809263313ce56760e01b82525afa908115610aef57610a09925f92610abe575b5061612c565b9283821115610aae57610a1c8483615045565b905b61271091828102928184041490151715610a9b575083610a3d91615196565b809360c882115f14610a8f57610a7b7f3b8a147345f4bcac027a91e59bcd04898bfa9a799f178804ead476c7974965e0938751938493429285614aa6565b0390a25f905b825191151582526020820152f35b50505050600190610a81565b601190634e487b7160e01b5f525260245ffd5b610ab88285615045565b90610a1e565b610ae191925060203d602011610ae8575b610ad98183614c32565b810190615829565b905f610a03565b503d610acf565b86513d5f823e3d90fd5b855162461bcd60e51b81526020818701526016602482015275496e76616c696420696e7465726e616c20707269636560501b6044820152606490fd5b8234610985575f3660031901126109855760a09060465460ff60475491835193610b6185848416614c55565b600180871b038260081c166020860152828260a81c1615159085015260b01c16151560608301526080820152f35b509034610985578060031936011261098557610ba9614a90565b602435925f8051602061719283398151915292610bc7845c15614f4a565b6001845d610bd58584615c4c565b8415610d2b576001600160a01b0383811692907f0000000000000000000000000000000000000000000000000000000000000000811684149081159081610cfe575b50610ce357610c268533616248565b335f525f602052825f2091815f14610cd95782545b888110610cb757505092610c945f97610c9994610c8694610c9f98978b14610ca257610c68838254615045565b90555b5163a9059cbb60e01b6020820152938491336024840161586c565b03601f198101845283614c32565b616d7c565b33616302565b5d005b600101610cb0838254615045565b9055610c6b565b845163db42144d60e01b8152918291610cd5918b903390850161617c565b0390fd5b6001830154610c3b565b50905163d647364f60e01b8152908190610cd5908201615477565b90507f0000000000000000000000000000000000000000000000000000000000000000168414155f610c17565b51631f2a200560e01b8152fd5b8234610985575f3660031901126109855760209051670de0b6b3a76400008152f35b8234610985575f36600319011261098557602090600e549051908152f35b8234610985575f36600319011261098557602090610d9e600e54600f54601054916161ef565b9051908152f35b8234610985575f3660031901126109855760195460209190610dd0906001600160a01b031680615160565b60c01c9051908152f35b8234610985575f36600319011261098557602090600c549051908152f35b509034610985575f36600319011261098557610e12614e4c565b508051610e1e81614bc4565b60465460ff81169284841015610e9a5760a09450838352600180861b036020840190808460081c1682528285019160ff8560a81c161515835260ff606087019560b01c161515855260806047549601958652610e7c84518098614c55565b51166020860152511515908401525115156060830152516080820152f35b602185634e487b7160e01b5f525260245ffd5b50903461098557606036600319011261098557610ec8614db4565b610ed0614d94565b6044356001600160801b03818116939092848303610985575f8051602061719283398151915292610f02845c15614f4a565b6001845d60ff603e541661114f57610f1a8284616bde565b610f2386616241565b851561113f57610f348284336160db565b97885f5260156020526001885f20019086825416888110611121575050610f7c610f70979899610f76610f68868887616c86565b9a9092616d09565b926152d7565b986152d7565b9581549181610f8d8582861661619a565b166001600160801b0319938416179055600285900b5f81815260166020528b902080548484610fbe8882851661619a565b1691161790558460020b805f5260166020528b5f2080548585610fe38982851661619a565b16911617905560195460a01c60020b918212159182611117575b50506110f9575b5050506017548086116110f1575b958596601854908187116110e7575b9161104d87611064936110455f9a9b5f805160206171128339815191529897615045565b601755615045565b601855886110b7575b87611087575b600f0b6161b3565b90611077895192839233964292856161ca565b0390a25d82519182526020820152f35b6110b2887f0000000000000000000000000000000000000000000000000000000000000000336164fc565b61105c565b6110e2897f0000000000000000000000000000000000000000000000000000000000000000336164fc565b611056565b9095508590611021565b945084611012565b611108601a549382851661619a565b16911617601a555f8080611004565b1290505f80610ffd565b895163db42144d60e01b8152918291610cd5918b903390850161617c565b8651631f2a200560e01b81528890fd5b865163015c3a5360e11b81528890fd5b614de8565b8234610985575f366003190112610985576020906045549051908152f35b905034610985573660031901126109855761119b614a90565b5060a0366023190112610985576111b0614d7e565b506001600160a01b036024358181169081900361098557817f00000000000000000000000000000000000000000000000000000000000000001614908161125c575b50156112295760208261120a600f54601054906152d7565b611219601154600b5490616080565b600d5551636e4c1aa760e11b8152f35b6020606492519162461bcd60e51b8352820152600e60248201526d0a8ded6cadc40dad2e6dac2e8c6d60931b6044820152fd5b6044358082169250829003610985577f000000000000000000000000000000000000000000000000000000000000000016145f6111f2565b8334610985575f36600319011261098557517f00000000000000000000000000000000000000000000000000000000000000006001600160a01b03168152602090f35b8334610985575f366003190112610985576020906009549051908152f35b82843461098557606036600319011261098557611310614a90565b611318614a7a565b6001600160a01b0391821692906044359083906113368615156157e5565b1694851561142c5781159081156113da575b50917f967419ec9ba2d78eeca21875d152f2766cc6f01dc16144d26c3dc526b34b544493916020935f146113d4575061012c915b600382519161138a83614b73565b888352858301858152848401905f825260608501925f84528a5f52603a8952865f2095511660018060a01b03198654161785555160018501555160028401555191015551908152a3005b9161137c565b603c83101580611420575b61134857606490602085519162461bcd60e51b83528201526011602482015270125b9d985b1a59081a19585c9d1899585d607a1b6044820152fd5b50610e108311156113e5565b606490602084519162461bcd60e51b83528201526014602482015273496e76616c69642066656564206164647265737360601b6044820152fd5b83833461098557602090816003193601126109855780355f60c0855161148b81614ba9565b828152828682015282878201528260608201528260808201528260a08201520152805f5260028352835f205415611558575f5260028252825f20908351926114d284614ba9565b825494858552600184015460018060a01b039280870193808316855260ff8489019360a01c16151583526002870154946060890195865260c0600560038a01549860808c01998a528a01549960a08c019a8b52015499019889528451998a52511690880152511515908601525160608501525160808401525160a08301525160c0820152f35b83516313a42eb760e21b81529182015260249150fd5b50503461098557602036600319011261098557359060265482101561098557611598602092614a09565b91905490519160031b1c8152f35b8334610985575f36600319011261098557602090601c549051908152f35b8334610985575f36600319011261098557602090610d9e615b9f565b8334610985575f36600319011261098557602090602a549051908152f35b8334610985575f36600319011261098557602090610d9e615b7e565b5050346109855760203660031901126109855735906028548210156109855760209160285f52825f2001549051908152f35b50503461098557606036600319011261098557611667614d06565b916024915f8051602061719283398151915290604435843561168a845c15614f4a565b6001845d60ff603e541661199a576116a181616241565b6116aa82616241565b80156119605760018110801561194b575b611912578115611902576001821080156118ed575b6118b157335f5260209660068852855f20546116ec84826152d7565b90600754908183116118895750508115611862577f0000000000000000000000000000000000000000000000000000000000000000905b821561185757611742670de0b6b3a76400008686020480935b33616949565b335f5260068a52875f2055600554975f19891461184557506001880160055586519061176d82614ba9565b88825289820195338752898b8a8501861515998a8252606087019189835260808801938b855260a089019542875260c08a019889525f52600290528d5f20975188556001880191600160a01b6001900390511682549160ff60a01b9051151560a01b1691600160a81b6001900319161717905551600286015551600385015551908301555190600501556118019087616a22565b8451928352868301528382015242606082015283339160807f3ce424b9f68d9a3450725645fa8fe0b6486c64a0d0a5cf105452b6bb9f3192b691a35f905d51908152f35b634e487b7160e01b5f90815260118752fd5b61174285809361173c565b7f000000000000000000000000000000000000000000000000000000000000000090611723565b9060849287928b8b519463dea27b2560e01b8652339086015284015260448301526064820152fd5b845163d647364f60e01b8152602081850152601681880152757175616e74697479206f7574206f6620626f756e647360501b6044820152606490fd5b5068327cb2734119d3b7a9601e1b82116116d0565b8451631f2a200560e01b81528390fd5b845163d647364f60e01b8152602081850152601381880152727072696365206f7574206f6620626f756e647360681b6044820152606490fd5b5068327cb2734119d3b7a9601e1b81116116bb565b845163d647364f60e01b81526020818501526014818801527370726963652063616e6e6f74206265207a65726f60601b6044820152606490fd5b845163015c3a5360e11b81528390fd5b8334610985575f366003190112610985575f805f80601e5494601f54956119d187826152d7565b806119ed575b5050906119e992915194859485614aa6565b0390f35b91935094506119e99350611a2d9150611a16611a2482611a16611a1b82611a168b602154615160565b615196565b98602254615160565b96602354615160565b670de0b6b3a7640000611a4560245460205490615160565b0491859493876119d7565b8334610985575f366003190112610985576020906044549051908152f35b833461098557606036600319011261098557611aa1611a8b614a90565b611a93614d94565b611a9b614da4565b91615b08565b82519182526020820152f35b833461098557602036600319011261098557602090611aca614db4565b60020b5f526016825260018060801b03815f2054169051908152f35b8334610985578060031936011261098557602090610d9e611b05614a90565b611b0d614a7a565b90615a8c565b505034610985576020918260031936011261098557611b30614a90565b91335f52603d8452815f205f805160206171b283398151915290815f52855260ff835f20541615611c2c575f8051602061715283398151915293611b75855c15614f4a565b6001855d6001600160a01b0316918215611c12575093611c03825f965f80516020617172833981519152948852603d84528588209088528352848720600160ff1982541617905584519083820152828152611bcf81614c17565b60a085519360608552600e60608601526d6772616e7441646d696e526f6c6560901b608086015284015260a0830190615439565b9242908201528033930390a25d005b835163d647364f60e01b8152908190610cd5908201615635565b50602491519063472511eb60e11b82523390820152fd5b8334610985575f366003190112610985576020906042549051908152f35b614ac2565b8334610985575f366003190112610985576020906008549051908152f35b839034610985575f3660031901126109855761010091601e5491601f5491602054602154602254906023549260245494602554978151998a5260208a01528801526060870152608086015260a085015260c0840152820152f35b8334610985575f366003190112610985576020906039549051908152f35b8334610985575f366003190112610985576020906010549051908152f35b8334610985575f366003190112610985576119e990611d37614efb565b90519182916020835260208301906149d6565b828434610985575f366003190112610985576043549060445490818303915f811284841281169085851390151617611d8f576060945081519384526020840152820152f35b601185634e487b7160e01b5f525260245ffd5b8334610985575f366003190112610985576020905160c88152f35b833461098557602036600319011261098557611aa1611dda614a90565b615887565b505034610985578160031936011261098557611df9614a90565b602435906001600160a01b0380821691611e148315156157e5565b8315611f2a57849291611e28602092615887565b50925f52603a8252865f20541686519384809263313ce56760e01b82525afa908115611f2057611e5e925f92610abe575061612c565b9081811115611f1057611e718282615045565b925b6127109384810290808204861490151715611eea57611e95846101f492615196565b11611ea4576020855160018152f35b61251c918284029284159085850414811715611efd57612904808602958604141715611eea579451631f63904760e11b8152948594610cd5948190049304918501615842565b601182634e487b7160e01b5f525260245ffd5b601183634e487b7160e01b5f525260245ffd5b611f1a8183615045565b92611e73565b85513d5f823e3d90fd5b855162461bcd60e51b81526020818701526018602482015277496e76616c69642064656c6576657261676520707269636560401b6044820152606490fd5b8284346109855761016036600319011261098557611f84614a90565b5060a03660231901126109855760603660c319011261098557610144356001600160401b03811161098557611fbc9036908401614c76565b5050611fcd600f54601054906152d7565b611fd9600d54826167e6565b61219d575b50600e54600f5490601054612000611ff78285856161ef565b6014549061682d565b61216a575b505050600360265410801561202a575b50805163b47b2fb160e01b81525f6020820152f35b6121285761206e61205d6021546120408161686e565b91829161205761204e6168c6565b8094819361692e565b936152d7565b9081601e5582601f55602b556152d7565b801561211c57601f54670de0b6b3a7640000908181029181830414901517156121095761209c929350615196565b6020555b670de0b6b3a76400008060205411612100575b50436025557ff46e0e6249834619fcfe295a07f05623dcd618806d4d68c295ec6bbf80ff6cf0601e54601f546120f6602054926021548651948594429386614dc4565b0390a18082612015565b602055816120b3565b601184634e487b7160e01b5f525260245ffd5b5090505f6020556120a0565b906020606492519162461bcd60e51b8352820152601c60248201527b496e73756666696369656e7420686973746f726963616c206461746160201b6044820152fd5b61217b61218f9161219594846161ef565b916011548060145543601255600b546167c6565b90616080565b828080612005565b6121ac601154600b5490616080565b600d5582611fde565b8334610985578060031936011261098557602090610d9e6121d4614a90565b6121dc614a7a565b9061576c565b8334610985575f3660031901126109855760209060ff603e541690519015158152f35b8334610985575f3660031901126109855760209051670429d069189e00008152f35b83346109855780600319360112610985576020906001600160a01b0361224b614a90565b165f52603d8252805f206024355f52825260ff815f20541690519015158152f35b8334610985575f36600319011261098557601e5490601f5490602054602154602254916023549360245495815197885260208801528601526060850152608084015260a083015260c0820152f35b8284346109855760203660031901126109855781355f526002602052805f2080549260018201549260028301549060ff600560038601549486015495015495825197885260018060a01b038116602089015260a01c161515908601526060850152608084015260a083015260c0820152f35b8334610985575f36600319011261098557602090516101f48152f35b83346109855761235736614d15565b50505050505050612375600b5461218f6011549182600e54916167c6565b80516327c18fbf60e21b81525f6020820152f35b505034610985578160031936011261098557602435801515810361098557611aa1913561566d565b8334610985576020366003190112610985576080906001600160a01b0390816123d8614a90565b165f52603a602052805f2091825416916001810154916003600283015492015492815194855260208501528301526060820152f35b8334610985575f36600319011261098557602090601b549051908152f35b5050346109855760208060031936011261098557612447614a90565b91335f52603d8252835f205f805160206171b283398151915290815f52835260ff855f2054161561257d575f805160206171528339815191529361248c855c15614f4a565b6001855d6001600160a01b031691821561256357338314612520575091611c03825f96945f80516020617172833981519152948852603d8452858820908852835284872060ff198154169055845190838201528281526124eb81614c17565b60a085519360608552600f60608601526e7265766f6b6541646d696e526f6c6560881b608086015284015260a0830190615439565b855163d647364f60e01b8152908101849052601c60248201527b63616e6e6f74207265766f6b65206f776e2061646d696e20726f6c6560201b6044820152606490fd5b855163d647364f60e01b8152908190610cd5908201615635565b845163472511eb60e11b81523381840152602490fd5b8334610985575f36600319011261098557602090612328603954119051908152f35b83346109855760603660031901126109855760c0906126156125d5614a90565b6125dd614d94565b6125e5614da4565b915f60a086516125f481614b8e565b828152826020820152828882015282606082015282608082015201526160db565b5f526015602052805f2081519061262b82614b8e565b60018060a01b038154169283835260018201549060018060801b0360208501908084168252828601918460801c60020b8352606087019460981c60020b855260a0600360028801549760808a01988952015497019687528351978852511660208701525160020b908501525160020b60608401525160808301525160a0820152f35b8334610985575f366003190112610985576119e990611d37614eaa565b8334610985575f3660031901126109855760195490516001600160a01b039091168152602090f35b82843461098557806003193601126109855781359160243591335f52603d602052805f205f805160206171b28339815191525f5260205260ff815f2054161561283d57831561280a5766038d7ea4c6800083106127ca5782815583604255670de0b6b3a76400008061276d856127688189615160565b615160565b049283603f55818402918483041484151715610a9b5750936127c5916127b4857fe537ebbc925dd7137718b02a0aa1ca750fbd359132f3a67c6f632677a755ab5e97615196565b604155436045555193849384615842565b0390a1005b906020606492519163d647364f60e01b835282015260196024820152781a5b9a5d1a585b145d585b9d1a5d1e481d1bdbc81cdb585b1b603a1b6044820152fd5b906020606492519163d647364f60e01b8352820152600c60248201526b696e697469616c507269636560a01b6044820152fd5b60249250519063472511eb60e11b82523390820152fd5b8284346109855760203660031901126109855781358254811015610985576020925f52825f2001549051908152f35b50503461098557816003193601126109855762ffffff813581811690818103610985576024359283169081840361098557335f52602093603d8552865f205f805160206171b28339815191525f52855260ff875f20541615612a77575f80516020617152833981519152956128f9875c15614f4a565b6001875d875161290881614c17565b60078152666261736546656560c81b87820152606486108015612a6c575b612a3f5750875161293681614c17565b60068152656d617846656560d01b8782015261138885108015612a61575b612a3f5750838511612a085750925f969492611c03925f805160206171728339815191529560015f805160206170f28339815191525d65ffffff000000601d549162ffffff60301b9060301b169260181b169068ffffffffffff00000019161717601d5585519184830152858201528481526129cf81614b44565b60a0855193606085526013606086015272757064617465466565506172616d657465727360681b608086015284015260a0830190615439565b875163d647364f60e01b8152908101869052601060248201526f62617365466565203e206d617846656560801b6044820152606490fd5b885163d647364f60e01b81529182018790528190610cd5906024830190615439565b50614e208511612954565b506113888611612926565b865163472511eb60e11b81523381880152602490fd5b8334610985575f366003190112610985576020906038549051908152f35b5050346109855760203660031901126109855735906003548210156109855760209160035f52825f2001549051908152f35b8334610985575f366003190112610985576020905160148152f35b8334610985575f366003190112610985576020906007549051908152f35b8334610985575f36600319011261098557600e546119e9600f549260105460115490601254925195869586614dc4565b8334610985575f366003190112610985578051602780548083525f918252602080840194927f98a476f1687bc3d60a2da2adbcba2c46958e61fa2fb4042cd7bc5816a710195b92915b828210612bb9576119e98686612ba7828b0383614c32565b519182916020835260208301906149d6565b835487529586019560019384019390910190612b8f565b82843461098557602036600319011261098557610d9e60209235615563565b8334610985575f3660031901126109855760209060ff603c541690519015158152f35b8334610985575f36600319011261098557602090515f805160206171b28339815191528152f35b8334610985576020366003190112610985576020906001600160a01b03612c5e614a90565b165f5260068252805f20549051908152f35b8334610985575f366003190112610985578051602680548083525f918252602080840194927f744a2cf8fd7008e3d53b67916e73460df9fa5214e3ef23dd4259ca09493a359492915b828210612cd1576119e98686612ba7828b0383614c32565b835487529586019560019384019390910190612cb9565b8334610985575f366003190112610985576020906013549051908152f35b83346109855761010036600319011261098557612d21614a90565b5060a036602319011261098557612d36614d7e565b5060e4358060020b036109855751636fe7e6eb60e01b8152602090f35b8334610985575f36600319011261098557602090602b549051908152f35b833461098557612d8036614d15565b50505050505050612d9e600b5461218f6011549182600e54916167c6565b8051633615df3f60e11b81525f6020820152f35b8334610985575f366003190112610985576020906018549051908152f35b8284346109855761014036600319011261098557612dec614a90565b9060a03660231901126109855760603660c319011261098557610124356001600160401b03811161098557612e249036908501614c76565b50505f8051602061719283398151915292612e40845c15614f4a565b60019081855d60e435935f85139283156135fa5785905b612e5f615544565b9660ff60465416858110156135e757600281036133a25750821561339257612e85615b9f565b881561334657875466038d7ea4c6800085018086116132fd578111156133105784612eaf91615045565b808955612ebe856043546152d7565b604355603f54670de0b6b3a7640000908181029181830414901517156132fd5790612ee891615196565b6041555b612ef4615b9f565b8060425543604555612f0681836152d7565b841c91808211156132b957612f1b8183615045565b670de0b6b3a7640000908181029181830414901517156132a65791612f506080925f8051602061713283398151915294615196565b8b548c5192835260208301528b8201528b15156060820152a195881561329257612f7c84600f54616763565b600f555b600e54600f5460105491612f958383836161ef565b90601354808311613276575081612fd6612fe3927f43d579faaaf0b70bea39491b1770bdbebb6b885eb64663313bd49349ef76a3d496959460115582616790565b8d51948594429386614dc4565b0390a115613266575b50612ff5615544565b505f965b156132555761300b825b600954616065565b60095561301a826021546152d7565b6021556026546014811061321157505f5b601381106131c8575050602654601310156131b55760265f527f744a2cf8fd7008e3d53b67916e73460df9fa5214e3ef23dd4259ca09493a35a78190556130ae9291905b60115494600e54956130ba600f5491601054926130b46130a162ffffff9b8c6020613098615263565b01511694616e34565b6127109a8b968794616ec8565b93615160565b04615160565b0485810290808204871490151715611d8f57859004946101f48087106131ad575b508086116131a5575b506130ed615544565b9360ff6046541690808210156131925750606099935f95937f77e260ee96920bdc22e42693086faf03a5f75f928aa2f657eee2c3cf6276a09993600260c094149081891461318b5788915b891461318457825b8c5197151588526020880152868c01528c86015260808501524260a08501526001600160a01b031692a25d8251936315d7892d60e21b855260208501521690820152f35b8892613140565b8291613138565b602190634e487b7160e01b5f525260245ffd5b9450896130e4565b95508a6130db565b603283634e487b7160e01b5f525260245ffd5b8181018082116131fe57906131f86131e08493614a09565b90546131eb84614a09565b91909260031b1c91615ca8565b0161302b565b601186634e487b7160e01b5f525260245ffd5b90600160401b82101561324257826132378361323d936130ae9897969501602655614a09565b90615ca8565b61306f565b604185634e487b7160e01b5f525260245ffd5b61300b61326183615553565b613003565b61326f90615553565b5088612fec565b8a604491848f5192630c47413f60e21b84528301526024820152fd5b61329e84601054616763565b601055612f80565b601189634e487b7160e01b5f525260245ffd5b6132c38282615045565b670de0b6b3a7640000908181029181830414901517156132a657916132f86080925f8051602061713283398151915294615196565b612f50565b601188634e487b7160e01b5f525260245ffd5b885163d647364f60e01b8152602081890152600f60248201526e747261646520746f6f206c6172676560881b6044820152606490fd5b6133518489546152d7565b808955613360856044546152d7565b604455603f54670de0b6b3a7640000908181029181830414901517156132fd579061338a91615196565b604155612eec565b8651631f2a200560e01b81528590fd5b6003036134305761340d906133d67f0000000000000000000000000000000000000000000000000000000000000000614fd4565b505f81131561342857905b81975f1461341a575b8480821115613413576133fc91615045565b505b613406615544565b90846166e7565b96612ff9565b50506133fe565b61342390615553565b6133ea565b505f906133e1565b969461343a615cbf565b989091828511156135e15761344f8386615045565b8015908115806135d2575b6134ad575b50509061349192915f1461349f575b81808211156134985761348091615045565b505b8861348b615544565b916166e7565b9694612ff9565b5050613482565b6134a890615553565b61346e565b6134b5615544565b916135c257601a546001600160801b0316156135aa5790816134dd61349196959493836152fd565b928181156135915750601854808311613589575b505b1561356757613507613512926017546152d7565b601755601854615045565b6018555b601954906001600160a01b0316600160601b81108061355557505f5b60a01b62ffffff60a01b169160018060b81b03191617176019559091928c61345f565b15613561575f19613532565b86613532565b613576613581926018546152d7565b601855601754615045565b601755613516565b91505f6134f1565b6017548091116135a2575b506134f3565b91505f61359c565b8a5163d647364f60e01b815280610cd5818c016152b0565b8a51631f2a200560e01b81528990fd5b5060ff60465460b01c1661345a565b5f61344f565b602186634e487b7160e01b5f525260245ffd5b61360386615553565b90612e57565b8334610985575f3660031901126109855780602091549051908152f35b82843461098557602036600319011261098557670de0b6b3a76400006020923560085402059051908152f35b8334610985578060031936011261098557602090610d9e613671614a90565b613679614a7a565b90615497565b8284346109855760209182600319360112610985575f805160206171928339815191529181356136b0845c15614f4a565b6001845d8015801561381e575b61380957805f5260028552815f205415613809575f818152600286528290206001810180546001600160a01b03919033838216036137ef5797845f99948a98967f8cd7e382eb42bcc84841dacd15adda3bdd77aefce75edd49238bd47995b1f9688960059a9760029761373760ff8f9c60a01c16866163e4565b600381549660ff8860a01c168d146137c55761377e7f0000000000000000000000000000000000000000000000000000000000000000985b6005830199868b5492166164fc565b0154828254168c5260068952838c209081540390555416935481519081524287820152a384525281209181835581600184015581600284015581600384015582015501555d005b61377e7f00000000000000000000000000000000000000000000000000000000000000009861376f565b8551631cd6ba0f60e01b815280610cd58733838c0161586c565b90516313a42eb760e21b815291820152602490fd5b506005548110156136bd565b8284346109855760203660031901126109855760c091355f526015602052805f209060018060a01b038254169160018101546003600283015492015492805194855260018060801b03821660208601528160801c60020b9085015260981c60020b6060840152608083015260a0820152f35b8334610985575f36600319011261098557602090600f549051908152f35b505034610985575f36600319011261098557600354905482519182526020820152f35b828434610985575f366003190112610985578051908183548082526020809201945f5260205f20915f905b828210613920576119e98686612ba7828b0383614c32565b835487529586019560019384019390910190613908565b8334610985575f366003190112610985576020905161012c8152f35b8334610985575f3660031901126109855760a0906008549060095490600a54600b5491600c54938151958652602086015284015260608301526080820152f35b8334610985575f366003190112610985578051600380548083525f918252602080840194927fc2575a0e9e593c00f959f8c92f12db2869c3395a3b0502d05e2516446f71f85b92915b8282106139f4576119e98686612ba7828b0383614c32565b8354875295860195600193840193909101906139dc565b505034610985578160031936011261098557613a25614a90565b916024355f8051602061719283398151915292613a43845c15614f4a565b6001845d613a518286615c4c565b8115613b5f576001600160a01b038581167f00000000000000000000000000000000000000000000000000000000000000008216811492909183159081613b32575b50613b18575091610c9f9391613ae88794613aaf5f9933616248565b338952886020528489209451906323b872dd60e01b602083015233602483015230604483015284606483015260648252610c9482614bc4565b8614613b0157613af99082546152d7565b905533616302565b906001613b1191019182546152d7565b9055610c99565b845163d647364f60e01b8152908190610cd5908201615477565b90507f0000000000000000000000000000000000000000000000000000000000000000168214155f613a93565b8251631f2a200560e01b8152fd5b833461098557602036600319011261098557608090613b8a614a90565b5f60608351613b9881614b73565b8281528260208201528285820152015260018060a01b03165f525f602052805f2090805190613bc682614b73565b825492838352600181015460208401908152606060036002840154938587019485520154940193845282519485525160208501525190830152516060820152f35b505034610985575f36600319011261098557335f52603d602052815f205f805160206171b28339815191525f5260205260ff825f20541615613cc9575f5f8051602061715283398151915283613c5e825c15614f4a565b6001825d60ff19603e5416603e55825f805160206171d28339815191525d80519060608252600e60608301526d756e706175736554726164696e6760901b608083015260a060208301528360a083015242908201525f8051602061717283398151915260c03392a25d005b602491519063472511eb60e11b82523390820152fd5b8334610985575f366003190112610985576020906017549051908152f35b505034610985578160031936011261098557803560243590335f52602091603d8352845f205f805160206171b28339815191525f52835260ff855f20541615613e73575f8051602061715283398151915293613d5a855c15614f4a565b6001855d5f83128015613e68575b613e38575f82138015613e2c575b613dfb575091611c035f80516020617172833981519152925f969460025f805160206170f28339815191525d8551918483015285820152848152613db981614b44565b60a085519360608552601c60608601527b757064617465566f6c6174696c697479436f656666696369656e747360201b608086015284015260a0830190615439565b855163d647364f60e01b8152908101849052600a60248201526939b437b93a21b7b2b33360b11b6044820152606490fd5b5061270f198212613d76565b855163d647364f60e01b815290810184905260096024820152683637b733a1b7b2b33360b91b6044820152606490fd5b506127108313613d68565b845163472511eb60e11b81523381860152602490fd5b828434610985575f36600319011261098557670de0b6b3a7640000906020546709b6e64a8ec6000081115f14613f0e57613ec491925061502f565b670214e8348c4f000090818102918183041490151715611efd57670429d069189e00009004670de0b6b3a76400000180670de0b6b3a764000011611efd5760209250905b51908152f35b670429d069189e000090818110613f2b575b505060209250613f08565b613f3790939293615005565b67016345785d8a000090818102918183041490151715611d8f57048103908111611efd5760209250908380613f20565b8334610985578060031936011261098557613f8c613f83614d06565b602435906152fd565b82519182526001600160a01b03166020820152f35b8334610985575f366003190112610985576020906043549051908152f35b8334610985575f3660031901126109855760a090613fdb614e4c565b50613ff0613fe761522f565b915180926149a9565bf35b8334610985575f366003190112610985576020906005549051908152f35b8334610985575f366003190112610985576020906003549051908152f35b8334610985575f366003190112610985576102e09061404b614e4c565b50614054614e4c565b5061405d614e4c565b5061406661509a565b50613ff0614072614e76565b91608061407d61522f565b91614086615263565b906140a96140926150d6565b9461409f835180996149a9565b60a08801906149a9565b62ffffff9081835116610140880152816020840151166101608801528201511661018086015263ffffffff6060820151166101a0860152015115156101c08401526101e0830190614af9565b50503461098557602036600319011261098557803591335f52603d602052805f205f805160206171b28339815191525f5260205260ff815f2054161561283d57683635c9adc5dea00000831061414c576007839055005b906020606492519162461bcd60e51b8352820152601b60248201527a506f736974696f6e2073697a65206c696d697420746f6f206c6f7760281b6044820152fd5b5050346109855761419d36614ca3565b50509150506141b05f8483013513615bf8565b6141c560206141be83615c3e565b9201615c3e565b60020b9060020b12156141e357815163259982e560e01b8152602090f35b6020606492519162461bcd60e51b83528201526012602482015271496e76616c6964207469636b2072616e676560701b6044820152fd5b828434610985575f36600319011261098557602091549051908152f35b5050346109855760203660031901126109855735906029548210156109855760209160295f52825f2001549051908152f35b8334610985575f3660031901126109855780519061428682614b44565b805161429181614bfb565b610140908136823783525f8260209482602082015201528151906142b482614b44565b825192602c5f855b600a8210614321575050506142d084614bfb565b83835260365460208401908152603754938201938452905193945f90855b600a831061430c575050506101809450519083015251610160820152f35b81806001928a518152019801920191966142ee565b82548152600192830192919091019087016142bc565b5050346109855761434736614ca3565b505091505061435a5f8483013512615bf8565b61436860206141be83615c3e565b60020b9060020b12156141e357815163021d0ee760e41b8152602090f35b8334610985575f36600319011261098557601754601854601954601a54845193845260208401929092526001600160a01b0381169383019390935260a092831c60020b60608301526001600160801b03166080820152f35b8334610985575f36600319011261098557602090610d9e6151a0565b8334610985575f3660031901126109855760a09060ff601d5462ffffff928051938083168552808360181c1660208601528260301c169084015263ffffffff8160481c16606084015260681c1615156080820152f35b8334610985575f36600319011261098557602090603f549051908152f35b8334610985575f36600319011261098557602090613ff060ff6046541691518092614c55565b8284346109855760209182600319360112610985576001600160401b03908035908282116109855736602383011215610985578181013592831161453957508160051b8351926144e686830185614c32565b83526024858401918301019136831161098557602401905b82821061451a5750505061451190615123565b90519015158152f35b81356001600160a01b03811681036109855781529085019085016144fe565b604190634e487b7160e01b5f525260245ffd5b8334610985575f366003190112610985576101009061456961509a565b50613ff06145756150d6565b91518092614af9565b83346109855760203660031901126109855760209061451161459e614a90565b615052565b833461098557602036600319011261098557611aa16145c0614a90565b614fd4565b8334610985575f36600319011261098557601a5490516001600160801b039091168152602090f35b8284346109855780600319360112610985578135918083101561098557614612614a7a565b91335f52603d602052805f205f805160206171b28339815191525f5260205260ff815f2054161561283d57505060469182549160ff8216918260ff1985161785554360475580155f1461467c5750508254610100600160b81b031916600160a81b1790925550505b005b6001810361469f5750508254610100600160b81b03191661010160a81b17909255005b600281036146c75750508254610100600160b81b031916600160b01b179092555061467a9050565b6003146146d057005b6001600160b81b03199092161760089190911b610100600160a81b0316179055005b505034610985575f36600319011261098557335f52603d602052815f205f805160206171b28339815191525f5260205260ff825f20541615613cc9575f5f8051602061715283398151915283614749825c15614f4a565b6001825d600160ff19603e541617603e5560015f805160206171d28339815191525d80519060608252600c60608301526b706175736554726164696e6760a01b608083015260a060208301528360a083015242908201525f8051602061717283398151915260c03392a25d005b8334610985575f366003190112610985576020906041549051908152f35b8334610985575f3660031901126109855760175460185482519182526020820152f35b8334610985575f3660031901126109855760209060195460a01c60020b9051908152f35b5050346109855760203660031901126109855735906027548210156109855760209160275f52825f2001549051908152f35b8334610985575f36600319011261098557602090600a603754049051908152f35b8334610985575f3660031901126109855780518060265480825282602080930160265f52835f20925f5b8582821061494d575050506148af92500383614c32565b82519283918060275495868152019460275f52815f20905f5b8181106149395750614911866119e98761492b88886148e9848f0385614c32565b61491e6148f4614eaa565b916148fd614efb565b958451998a9960808b5260808b01906149d6565b91898303908a01526149d6565b91868303908701526149d6565b9083820360608501526149d6565b8254885296830196600192830192016148c8565b8554845260019586019588955093019201614898565b8334610985575f366003190112610985576020906011549051908152f35b8334610985575f3660031901126109855760a09061499d614e4c565b50613ff0613fe7614e76565b60808091805184526020810151602085015260408101516040850152606081015160608501520151910152565b9081518082526020808093019301915f5b8281106149f5575050505090565b8351855293810193928101926001016149e7565b602654811015614a215760265f5260205f2001905f90565b634e487b7160e01b5f52603260045260245ffd5b600354811015614a215760035f5260205f2001905f90565b600454811015614a215760045f5260205f2001905f90565b8054821015614a21575f5260205f2001905f90565b602435906001600160a01b038216820361098557565b600435906001600160a01b038216820361098557565b9094939260609260808301968352602083015260408201520152565b34610985575f36600319011261098557603f54604054906119e9614ae4615b9f565b614aec6151a0565b9060405194859485614aa6565b60e08091805184526020810151602085015260408101516040850152606081015160608501526080810151608085015260a081015160a085015260c081015160c08501520151910152565b606081019081106001600160401b03821117614b5f57604052565b634e487b7160e01b5f52604160045260245ffd5b608081019081106001600160401b03821117614b5f57604052565b60c081019081106001600160401b03821117614b5f57604052565b60e081019081106001600160401b03821117614b5f57604052565b60a081019081106001600160401b03821117614b5f57604052565b61010081019081106001600160401b03821117614b5f57604052565b61014081019081106001600160401b03821117614b5f57604052565b604081019081106001600160401b03821117614b5f57604052565b601f909101601f19168101906001600160401b03821190821017614b5f57604052565b906004821015614c625752565b634e487b7160e01b5f52602160045260245ffd5b9181601f84011215610985578235916001600160401b038311610985576020838186019501011161098557565b90610160600319830112610985576004356001600160a01b0381168103610985579160a060231982011261098557602491608060c3198301126109855760c49161014435906001600160401b03821161098557614d0291600401614c76565b9091565b60043590811515820361098557565b906101a0600319830112610985576004356001600160a01b0381168103610985579160a060231982011261098557602491608060c3198301126109855760c4916101443591610164359161018435906001600160401b03821161098557614d0291600401614c76565b60c435906001600160a01b038216820361098557565b602435908160020b820361098557565b604435908160020b820361098557565b600435908160020b820361098557565b9192608093969594919660a084019784526020840152604083015260608201520152565b3461098557610120366003190112610985576004356001600160a01b038116036109855760a036602319011261098557610104356001600160401b03811161098557614e38903690600401614c76565b5050604051630a85dc2960e01b8152600490fd5b60405190614e5982614bc4565b5f6080838281528260208201528260408201528260608201520152565b60405190614e8382614bc4565b60085482526009546020830152600a546040830152600b546060830152600c546080830152565b6040519060285480835282602091602082019060285f5260205f20935f905b828210614ee157505050614edf92500383614c32565b565b855484526001958601958895509381019390910190614ec9565b6040519060295480835282602091602082019060295f5260205f20935f905b828210614f3057505050614edf92500383614c32565b855484526001958601958895509381019390910190614f1a565b15614f5157565b60405162461bcd60e51b81526020600482015260136024820152721499595b9d1c985b98de4819195d1958dd1959606a1b6044820152606490fd5b15614f9357565b60405162461bcd60e51b8152602060048201526019602482015278141c9a58d94819995959081b9bdd0818dbdb999a59dd5c9959603a1b6044820152606490fd5b9060018060a01b038092165f52603a602052614ff860405f20928354161515614f8c565b6002600383015492015490565b90670429d069189e000091820391821161501b57565b634e487b7160e01b5f52601160045260245ffd5b6709b6e64a8ec5ffff1981019190821161501b57565b9190820391821161501b57565b60018060a01b038091165f52603a60205261507560405f20918254161515614f8c565b600281015480156150935761508c60019142615045565b9101541090565b5050600190565b604051906150a782614bdf565b5f60e0838281528260208201528260408201528260608201528260808201528260a08201528260c08201520152565b604051906150e382614bdf565b81601e548152601f54602082015260205460408201526021546060820152602254608082015260235460a082015260245460c082015260e0602554910152565b5f5b81518110156150935760018060a01b03603a602082818560051b87010151165f525260405f2054161561515a57600101615125565b50505f90565b8181029291811591840414171561501b57565b801561518257600160c01b0490565b634e487b7160e01b5f52601260045260245ffd5b8115615182570490565b60405466038d7ea4c68000811061521c576151cc90670de0b6b3a76400009181836130b4828295615160565b04801561520757603f54600181901b906001600160ff1b0381160361501b5782810292818404149015171561501b5761520491615196565b90565b506a0c097ce7bc90715b34b9f160241b919050565b506a0c097ce7bc90715b34b9f160241b90565b6040519061523c82614bc4565b600e548252600f546020830152601054604083015260115460608301526012546080830152565b6040519061527082614bc4565b81608060ff601d5462ffffff8082168552808260181c1660208601528160301c16604085015263ffffffff8160481c16606085015260681c161515910152565b60609060208152600c60208201526b6e6f206c697175696469747960a01b60408201520190565b9190820180921161501b57565b6001600160a01b03918216908216039190821161501b57565b811561542757601a546001600160801b0316801561540d576019546001600160a01b0393908416928491908390156153a6579061534961534f9261534087615173565b9260601b615196565b906152d7565b8061538557509283925b83821681111561537d5761537793615370916152e4565b1690615160565b60601c91565b505050505f91565b61538e90615173565b818111156153a057505b928392615359565b16615398565b6153b6906153bc9260601b615196565b846152d7565b818111156153fe57506153d56153db91945b8516615173565b92615173565b91828111156153f757615377926153f191615045565b90615160565b5050505f91565b6153db916153d59116946153ce565b60405163d647364f60e01b815280610cd5600482016152b0565b604051631f2a200560e01b8152600490fd5b91908251928382525f5b848110615463575050825f602080949584010152601f8019910116010190565b602081830181015184830182015201615443565b6060906020815260056020820152643a37b5b2b760d91b60408201520190565b6001600160a01b039081165f908152602081905260409020918116907f0000000000000000000000000000000000000000000000000000000000000000811682036154ef5750508060026152049254910154906152d7565b7f0000000000000000000000000000000000000000000000000000000000000000160361552a578060036001615204930154910154906152d7565b60405163d647364f60e01b815280610cd560048201615477565b60c43580151581036109855790565b600160ff1b811461501b575f0390565b615572601e54601f54906152d7565b15615204576020546709b6e64a8ec600008111156155cd576155939061502f565b90670429d069189e00008083029280840482149015171561501b576155c6670de0b6b3a764000091615204940483615160565b04906152d7565b670429d069189e00009081811015615630576155e890615005565b6702c68af0bb1400009081810291818304149015171561501b570490670de0b6b3a76400008083111561561c575050505f90565b6156296152049383615160565b0490615045565b505090565b60609060208152601e60208201527f6163636f756e742063616e6e6f74206265207a65726f2061646472657373000060408201520190565b919091615678615b9f565b921561575b5760405466038d7ea4c68000820180831161501b5781111561573b57906156a391615045565b603f5490670de0b6b3a7640000918281029080820484149015171561501b57826156d0836156d794615160565b0490615196565b926a0c097ce7bc90715b34b9f160241b808511615733575b506156fa84826152d7565b60011c9381808211156157295761571091615045565b82810292818404149015171561501b5761520491615196565b9061571091615045565b93505f6156ef565b506a0c097ce7bc90715b34b9f160241b9250670de0b6b3a7640000919050565b615767906040546152d7565b6156a3565b6001600160a01b039081165f908152602081905260409020918116907f0000000000000000000000000000000000000000000000000000000000000000811682036157b75750505490565b7f0000000000000000000000000000000000000000000000000000000000000000160361552a576001015490565b156157ec57565b60405162461bcd60e51b8152602060048201526015602482015274496e76616c696420746f6b656e206164647265737360581b6044820152606490fd5b90816020910312610985575160ff811681036109855790565b6040919493926060820195825260208201520152565b51906001600160501b038216820361098557565b6001600160a01b039091168152602081019190915260400190565b6001600160a01b039190821661589e8115156157e5565b805f52602090603a8252604093845f20916158bd828454161515614f8c565b805f52603b8452855f2054431115615a3e575f52603b835243855f2055815416845194633fabe5a360e21b865260a086600481855afa938415615a34575f945f955f985f926159db575b505f87131561599b576001600160501b03908116911610615966575061592d8642615045565b6001840154106159495750506003818560028594015501559190565b516313a4cd8360e21b8152908190610cd59087906004840161586c565b606491519062461bcd60e51b82526004820152601060248201526f5374616c6520726f756e64206461746160801b6044820152fd5b835162461bcd60e51b8152600481018490526019602482015278496e76616c69642070726963652066726f6d206f7261636c6560381b6044820152606490fd5b96505050955060a0843d60a011615a2c575b816159fa60a09383614c32565b8101031261098557615a0b84615858565b9580850151615a21608060608801519701615858565b97909597905f615907565b3d91506159ed565b50513d5f823e3d90fd5b855162461bcd60e51b815260048101859052602160248201527f4f7261636c6520616c72656164792071756572696564207468697320626c6f636044820152606b60f81b6064820152608490fd5b6001600160a01b039081165f908152602081905260409020918116907f000000000000000000000000000000000000000000000000000000000000000081168203615ada5750506002015490565b7f0000000000000000000000000000000000000000000000000000000000000000160361552a576003015490565b90615b1392916160db565b5f90815260156020526040902060018101546001600160801b031691908215615b7657615b7090615b67615b60615b51601b54600285015490615045565b926003601c5491015490615045565b9185615160565b60801c93615160565b60801c90565b505f91508190565b602054670de0b6b3a7640000908181101561515a57810390811161501b5790565b60405466038d7ea4c68000811061521c57603f54670de0b6b3a76400008082029180830482149015171561501b576156d083615bda94615160565b906a0c097ce7bc90715b34b9f160241b808311615bf45750565b9150565b15615bff57565b60405162461bcd60e51b8152602060048201526017602482015276496e76616c6964206c69717569646974792064656c746160481b6044820152606490fd5b358060020b81036109855790565b60405190615c5982614c17565b60058252643a37b5b2b760d91b60208301526001600160a01b031615615c835750614edf90616241565b60405163d647364f60e01b815260206004820152908190610cd5906024830190615439565b919082549060031b91821b915f19901b1916179055565b60035415801561605b575b616055575f905f905b600354158381158061604a575b1561603e5750614a215760035f5260205f20545f526002806020526040805f209160045415614a215760045f5260205f20545f5280602052815f209080840154908201548781831061602e5750906003916004860154600485015410155f146160265750935b80820154838301548082101561601d575080975b81870201980196670de0b6b3a7640000818702049560019687860160018060a01b0380928183541690615db7878d8a01937f0000000000000000000000000000000000000000000000000000000000000000908686541690616610565b615deb81848454167f0000000000000000000000000000000000000000000000000000000000000000908688541690616610565b8689890154038989015586898b015403898b0155600590818901908154039055890186815403905554165f526006602052875f2084815403905554165f52855f208281540390557f6a6896b1e6131e0b8ebae43fdc84cb0178a6eacdf4ee63f15dabae48729a8a03835491865493615e698951928392429184615842565b0390a3015415615f64575b6003015415615e88575b5050919091615cd3565b60045415615f2b57505f815b615ee1575b50506004548015615ecd575f1901615ec3615eb382614a4d565b8154905f199060031b1b19169055565b6004555f80615e7e565b634e487b7160e01b5f52603160045260245ffd5b6004545f19810190811161501b57811015615f265781810180821161501b578291615f1f615f0f8493614a4d565b90549060031b1c61323783614a4d565b0190615e94565b615e99565b5162461bcd60e51b8152602060048201526013602482015272496e646578206f7574206f6620626f756e647360681b6044820152606490fd5b60035415615fe3575f835b615f99575b50600354908115615ecd576003915f1901615f91615eb382614a35565b909155615e74565b6003545f19810190811161501b57811015615fde5783810180821161501b578491615fd7615fc78493614a35565b90549060031b1c61323783614a35565b0190615f6f565b615f74565b815162461bcd60e51b8152602060048201526013602482015272496e646578206f7574206f6620626f756e647360681b6044820152606490fd5b90508097615d5a565b905093615d46565b94505050505061520491926166d7565b905061520491926166d7565b506004541515615ce0565b5f905f90565b5060045415615cca565b9190915f838201938412911290801582169115161761501b57565b81156160a65781670de0b6b3a764000061609a9202615196565b600855600c5543600a55565b60405163d647364f60e01b815260206004820152600c60248201526b0c6eae4e4cadce888cae0e8d60a31b6044820152606490fd5b60405160609190911b6001600160601b0319166020820190815260e892831b60348301529290911b6037820152601a815261611581614c17565b51902090565b60ff16604d811161501b57600a0a90565b9060ff166012811015616151576012039060ff821161501b576153f16152049261611b565b6012811161615d575090565b601119019060ff821161501b576161766152049261611b565b90615196565b604091949392606082019560018060a01b0316825260208201520152565b6001600160801b03918216908216039190821161501b57565b600f0b60016001607f1b0319811461501b575f0390565b909493926060926080830196600f0b835260020b602083015260020b60408201520152565b61620c610df191616219949364e8d4a51000938491020590616065565b9161068d19020590616065565b5f81126162235790565b505f90565b6001600160801b03918216908216019190821161501b57565b1561542757565b60018060a01b0380911691825f52602060018152604092835f20921691825f528152825f20541561627a575b50505050565b82516370a0823160e01b815260048101859052938185602481865afa9485156162f8575f956162c9575b506001850180951161501b575f5260018152825f20915f52525f20555f808080616274565b9094508181813d83116162f1575b6162e18183614c32565b810103126109855751935f6162a4565b503d6162d7565b84513d5f823e3d90fd5b6001600160a01b039081165f818152600160209081526040808320949095168083529381529390205491908215616274575f19830192831161501b5783906024604051809481936370a0823160e01b835260048301525afa9081156163d9575f916163ac575b50116163715750565b6064906040519063d647364f60e01b825260048201526013602482015272119b185cda081b1bd85b8819195d1958dd1959606a1b6044820152fd5b90508281813d83116163d2575b6163c38183614c32565b8101031261098557515f616368565b503d6163b9565b6040513d5f823e3d90fd5b9181156164f4576003915b5f5b83548110156164db57846164058286614a65565b919054600392831b1c1461641c57506001016163f1565b9450919250156164d35782905b8154811015616498575b81545f19810190811161501b5781101561647857600181019081811161501b5761647261646260019385614a65565b905490871b1c6132378386614a65565b01616433565b5090915080548015615ecd575f190190616495615eb38383614a65565b55565b60405162461bcd60e51b8152602060048201526013602482015272496e646578206f7574206f6620626f756e647360681b6044820152606490fd5b600490616429565b6040516313a42eb760e21b815260048101869052602490fd5b6004916163ef565b9291801561660a576001600160a01b038481165f908152602081905260409020928116907f00000000000000000000000000000000000000000000000000000000000000008116820361659557505060028201805494828610616576575061656982616572949596615045565b905582546152d7565b9055565b9050610cd58560405193849363db42144d60e01b85526004850161617c565b939491937f0000000000000000000000000000000000000000000000000000000000000000160361552a5760038201908154908482106165ec5750916001916165e18561657295615045565b9055019182546152d7565b610cd5859260405193849363db42144d60e01b85526004850161617c565b50509050565b93929081156166d0576001600160a01b038581165f9081526020819052604080822093831682529020938116907f000000000000000000000000000000000000000000000000000000000000000081168203616685575050600201805494828610616576575061656982616572949596615045565b949592947f0000000000000000000000000000000000000000000000000000000000000000160361552a57600301908154908482106165ec5750916001916165e18561657295615045565b5050509050565b90801561515a5761520491615196565b801561675c578215616752576166ff81600f0b6161b3565b925b1561672e57670de0b6b3a76400009161671991615160565b04600f0b5b60018060801b03169060801b1790565b61674461674d92670de0b6b3a764000092615160565b04600f0b6161b3565b61671e565b80600f0b92616701565b5050505f90565b905f811261677457615204916152d7565b61677d90615553565b908082111561678c5750505f90565b0390565b811580156167be575b6167b05761520491670de0b6b3a764000002615196565b5050670de0b6b3a764000090565b508015616799565b91801580156167de575b615630576152049202615196565b5081156167d0565b9080156168275780918181115f1461682057035b6127109081810291818304149015171561501b576101f48083029283040361501b571190565b90036167fa565b50151590565b9080156168275780918181115f1461686757035b6127109081810291818304149015171561501b576064820291820460640361501b571190565b9003616841565b602a54156168bf57670429d069189e0000908082029182040361501b57602a54906709b6e64a8ec60000918083029283040361501b57670de0b6b3a7640000916168b7916152d7565b0480602a5590565b80602a5590565b6026548015616223575f905f905f905b8082106168ee575050801561515a5761520491615196565b909192600183019081841161501b57816169206169269261534960019561691489614a09565b90549060031b1c615160565b956152d7565b9201906168d6565b91616938916152d7565b8082111561515a5761520491615045565b8215615427576001600160a01b038181165f908152602081905260409020928116907f0000000000000000000000000000000000000000000000000000000000000000811682036169da5750508154908382106169bc5750616572916169b184600293615045565b8155019182546152d7565b610cd5849260405193849363db42144d60e01b85526004850161617c565b7f0000000000000000000000000000000000000000000000000000000000000000160361552a5760018201908154908482106165ec5750916003916165e18561657295615045565b90815f52600260208160205260409060405f2092845f14616bd6576003935b84548015616bb057505f95855494855b808910616ae557505050505050600160401b811015614b5f57806001616a7a9201835582614a65565b8154915f19928360039360031b1b19169055825482810190811161501b575b848111616ab157505050614edf929161323791614a65565b82810181811161501b57616ac8616ad89186614a65565b905490841b1c6132378387614a65565b801561501b578201616a99565b616aef818a6152d7565b90600191821c91616b00838b614a65565b90549060031b1c5f52868852835f20855f14616b7057878701549088810154808311928315616b4c575b5050505b15616b3a575050616a51565b909950810180911161501b5797616a51565b14915081616b5e575b505f8080616b2a565b9050600480880154910154115f616b55565b878701549088810154808310928315616b8c575b505050616b2e565b14915081616b9e575b505f8080616b84565b9050600480880154910154115f616b95565b96955050505050600160401b831015614b5f5782613237916001614edf95018155614a65565b600493616a41565b9060020b9060020b81811215616c4b57620d89e71913908115616c3e575b50616c0357565b60405163d647364f60e01b81526020600482015260126024820152717469636b206f7574206f6620626f756e647360701b6044820152606490fd5b620d89e89150135f616bfc565b60405163d647364f60e01b8152602060048201526012602482015271696e76616c6964207469636b2072616e676560701b6044820152606490fd5b919291906001600160801b03821615616cff57616ca5616cab91616f44565b93616f44565b6019546001600160a01b03908116908581168211616cd4575050616ccf9293616f6c565b905f90565b91929183168110616ceb5750615204915f94616fc4565b616cf9826152049483616f6c565b94616fc4565b505090505f905f90565b5f90815260156020526040902060018101546001600160801b0316918215616d7457601b54916002810192616d68616d42855483615045565b616d5f616d586003601c54960195865490615045565b9188615160565b60801c96615160565b60801c9355601c549055565b5f9250829150565b81516001600160a01b03909116915f91829160200182855af13d15616e28573d6001600160401b038111614b5f57616dd69160405191616dc66020601f19601f8401160184614c32565b82523d5f602084013e5b8361708e565b8051908115159182616e04575b5050616dec5750565b60249060405190635274afe760e01b82526004820152fd5b81925090602091810103126109855760200151801590811503610985575f80616de3565b616dd690606090616dd0565b8115616ec0578180821115616e7a57616e4c91615045565b906103e89182810292818404149015171561501b57616e6a91615196565b61271090810180911161501b5790565b90616e8491615045565b906103e89182810292818404149015171561501b57616ea291615196565b6127109081811115616eb45750505f90565b810390811161501b5790565b505061271090565b90616ed381836152d7565b918215616f3b5781811115616f2d5790616eec91615045565b612710918282029180830484149015171561501b57616f0a91615196565b6107d09081810291818304149015171561501b57819004810180911161501b5790565b616f3691615045565b616eec565b50505061271090565b60020b80616f555750600160601b90565b5f1315616f64576001605f1b90565b600160611b90565b615204926001600160a01b039083821683831611616fbc575b9080616faa849382616f9a616fb397896152e4565b16906001600160801b0316615160565b94169116615160565b60601c90615196565b919291616f85565b616fe692916001600160a01b0391616f9a9183811684831611616fec576152e4565b60601c90565b906152e4565b90916001600160a01b039081841682841611617048575b9061703d61702c6170449493617023848816858716615160565b60601c90615160565b6001600160801b03959093906152e4565b1690615196565b1690565b919291617009565b916001600160a01b0382811681851611617086575b6001600160801b03936170449361707c91906152e4565b169060601b615196565b919291617065565b906170b557508051156170a357805190602001fd5b604051630a12f52160e11b8152600490fd5b815115806170e8575b6170c6575090565b604051639996b31560e01b81526001600160a01b039091166004820152602490fd5b50803b156170be56fe2e1cc322d599a2450cbb45dd8aadbd42d3407e79ea48441adbd1e3b3118481a3b90dc8b3e66f0112fd596a2c3fa11773555fb9f1d0a90c696f58dbd31dc3b254d5657024322a7186e0b4f793445d561eced91f3030208e897f339f9ece98549097fe8d404437e2e1a21976fe5681625b730b03473ec701acb089e235ffa7d1612f7fdee9d735ef4b3aa1a1dd821773b7e8e9efbc039d90eec38bf53b18bdcf861234567890abcdef1234567890abcdef1234567890abcdef1234567890abcdefa49807205ce4d355092ef5a8a18f56e8913cf4a201fbe287825b095693c217751bd791bf781d4c82a99a72f56f8819a898e370f6460f3d784326748b66c6d78da26469706673582212201320f190e3a575143ea5543bc0b0098b9578ed004f0e0c17ff5e754b8f12fd2764736f6c63430008180033","linkReferences":{}},"methodIdentifiers":{"ADMIN_ROLE()":"75b238fc","ALPHA()":"b0bb1c5a","DEVIATION_THRESHOLD()":"b8491164","MAX_DELEVERAGING_DEVIATION()":"a1e8406d","MAX_HISTORY_LENGTH()":"81360e7a","ORACLE_HEARTBEAT()":"4a83c3b7","SCALE()":"eced5526","addLiquidity(int24,int24,uint256,uint256)":"fd87f9aa","afterAddLiquidity(address,(address,address,uint24,int24,address),(int24,int24,int256,bytes32),int256,int256,bytes)":"9f063efc","afterDonate(address,(address,address,uint24,int24,address),uint256,uint256,bytes)":"e1b4af69","afterInitialize(address,(address,address,uint24,int24,address),uint160,int24)":"6fe7e6eb","afterRemoveLiquidity(address,(address,address,uint24,int24,address),(int24,int24,int256,bytes32),int256,int256,bytes)":"6c2bbe7e","afterSwap(address,(address,address,uint24,int24,address),(bool,int256,uint160),int256,bytes)":"b47b2fb1","beforeAddLiquidity(address,(address,address,uint24,int24,address),(int24,int24,int256,bytes32),bytes)":"259982e5","beforeDonate(address,(address,address,uint24,int24,address),uint256,uint256,bytes)":"b6a8b0fa","beforeInitialize(address,(address,address,uint24,int24,address),uint160)":"dc98354e","beforeRemoveLiquidity(address,(address,address,uint24,int24,address),(int24,int24,int256,bytes32),bytes)":"21d0ee70","beforeSwap(address,(address,address,uint24,int24,address),(bool,int256,uint160),bytes)":"575e24b4","buyOrderIds(uint256)":"81490bff","calculateCurvePrice()":"ce8c4c1d","calculateEffectiveVolatility()":"ec5bbf7d","calculatePriceImpact(int256)":"51e73d2e","calculatePriceImpactAdjustment(uint256)":"7797a170","calculatePriceSensitivity()":"1ff2d4e9","calculateSwapPrice(bool,uint256)":"32ef4e87","cancelOrder(uint256)":"514fcac7","checkMultipleFeedsConfigured(address[])":"1971f9d9","configurePriceFeed(address,address,uint256)":"d9ea5b03","currentTick()":"065e5360","curveModeState()":"f86e9e8a","deposit(address,uint256)":"47e7ef24","feeGrowthGlobal0()":"9da12096","feeGrowthGlobal1()":"cf78756b","feeState()":"1e1f5d45","getAvailableBalance(address,address)":"b2838a73","getBaseVolatility()":"ecae461b","getBuyOrderCount()":"29ce16bb","getBuyOrderIds()":"48913d6b","getComponentBreakdown()":"ca65e4be","getComponentMetrics()":"ab13a8a6","getCumulativeFlow()":"dc2e1134","getCurrentPrice()":"eb91d37e","getCurrentVolatility()":"815c66d9","getCurveMode()":"19b9d4e0","getCurveModeState()":"e586f955","getCurveState()":"c417d1f0","getEffectiveDepth()":"e975fb2f","getEffectiveVolatility()":"0198b579","getHedgerRatio()":"cbc535f7","getHistoricalLeverage()":"bb328873","getHistoricalLiquidations()":"8e77a985","getHistoricalOI()":"77cf25cd","getHistoricalTrends()":"02226cbd","getHistoricalVolume()":"7433eaa3","getKyleState()":"00dc3f63","getLambda()":"c1ea019e","getLatestPrice(address)":"16345f18","getLiquidityAtTick(int24)":"c74bd932","getLockedBalance(address,address)":"c736887e","getLongOI()":"4f30be23","getMaxPositionSize()":"652dd22e","getOpenInterest()":"bb24882e","getOrder(uint256)":"d09ef241","getOrderbookDepth()":"4e26cf7b","getPoolState()":"217ac237","getPoolUtilization()":"bf7d653b","getPosition(address,int24,int24)":"9209e9ba","getPricingMultiplier()":"388e60ea","getReserves()":"0902f1ac","getSellOrderCount()":"24aaf97f","getSellOrderIds()":"4bdb1a85","getShortOI()":"bb6ef3d9","getState()":"1865c57d","getSystemState()":"28fa777f","getTWAP()":"05ecd003","getTWAPState()":"23185947","getTotalBalance(address,address)":"51bd551f","getUnclaimedFees(address,int24,int24)":"c7aacfe4","getUserBalance(address)":"47734892","getUserPositionSize(address)":"74efd307","getVAMMCurveState()":"116c755b","getVolatilityState()":"2c7e0fd0","grantAdminRole(address)":"c634b78e","hasRole(address,bytes32)":"ac4ab3fb","historicalLeverage(uint256)":"23536f84","historicalLiquidations(uint256)":"cbc37751","historicalOI(uint256)":"063d90dd","historicalVolume(uint256)":"d0546251","initializeVAMMCurve(uint256,uint256)":"8be675c0","isPaused()":"b187bd26","isPriceStale(address)":"17fdb62f","kyleState()":"48d9d9bb","lastCurvePrice()":"c6222283","lastCurveUpdateBlock()":"df6b28fe","maxPositionSizePerUser()":"80a48b76","maxVolatility()":"710b70d3","nextOrderId()":"2a58b330","oraclePaused()":"7706ba52","orders(uint256)":"a85c38ef","pauseTrading()":"1031e36e","placeOrder(bool,uint256,uint256)":"ca8b4f7a","poolConstant()":"1c2aef86","poolManager()":"dc4c90d3","positions(bytes32)":"514ea4bf","priceFeeds(address)":"9dcb511a","removeLiquidity(int24,int24,uint128)":"e3f9aa47","reserve0()":"443cb4bc","reserve1()":"5a76f25e","revokeAdminRole(address)":"9a19c7b0","seasonalBaseline()":"6fa50853","sellOrderIds(uint256)":"8b3e4ec5","setCurveMode(uint8,address)":"103905bc","setMaxPositionSize(uint256)":"26a9c121","shouldPrioritizeDeleveraging()":"94f3fe8e","simulateTrade(uint256,bool)":"9efc1886","sqrtPriceX96()":"8db791d2","state()":"c19d93fb","tickLiquidity(int24)":"b7e3e440","totalLiquidity()":"15770f92","totalLongPositions()":"2d44dc24","totalShortPositions()":"c924ebe7","trendComponent()":"cd5214af","unpauseTrading()":"456068d2","updateFeeParameters(uint24,uint24)":"868bf9e8","updateOraclePrice(address)":"b569628c","updateVolatilityCoefficients(int256,int256)":"3a141976","userPositionSize(address)":"55aa2f02","vBTCQuantity()":"56df6a47","vUSDCReserve()":"097d9c25","validateDeleveragingPrice(address,uint256)":"b4fa4382","validatePrice(address,uint256)":"fd45a433","volatilityState()":"7c0caf66","withdraw(address,uint256)":"f3fef3a3"},"id":66}